
Doga_Button.elf:     file format elf32-littlearm

Sections:
Idx Name          Size      VMA       LMA       File off  Algn
  0 .isr_vector   00000188  08000000  08000000  00010000  2**0
                  CONTENTS, ALLOC, LOAD, READONLY, DATA
  1 .text         000002f0  08000188  08000188  00010188  2**2
                  CONTENTS, ALLOC, LOAD, READONLY, CODE
  2 .rodata       00000000  08000478  08000480  00010480  2**0
                  CONTENTS, ALLOC, LOAD, DATA
  3 .init_array   00000004  08000478  08000478  00010478  2**2
                  CONTENTS, ALLOC, LOAD, DATA
  4 .fini_array   00000004  0800047c  0800047c  0001047c  2**2
                  CONTENTS, ALLOC, LOAD, DATA
  5 .data         00000000  20000000  20000000  00010480  2**0
                  CONTENTS, ALLOC, LOAD, DATA
  6 .ccmram       00000000  10000000  10000000  00010480  2**0
                  CONTENTS
  7 .bss          0000001c  20000000  20000000  00020000  2**2
                  ALLOC
  8 ._user_heap_stack 00000400  2000001c  2000001c  00020000  2**0
                  ALLOC
  9 .ARM.attributes 0000002a  00000000  00000000  00010480  2**0
                  CONTENTS, READONLY
 10 .debug_info   00000b01  00000000  00000000  000104aa  2**0
                  CONTENTS, READONLY, DEBUGGING
 11 .debug_abbrev 000002a6  00000000  00000000  00010fab  2**0
                  CONTENTS, READONLY, DEBUGGING
 12 .debug_aranges 000000d8  00000000  00000000  00011258  2**3
                  CONTENTS, READONLY, DEBUGGING
 13 .debug_ranges 000000a0  00000000  00000000  00011330  2**3
                  CONTENTS, READONLY, DEBUGGING
 14 .debug_line   00000658  00000000  00000000  000113d0  2**0
                  CONTENTS, READONLY, DEBUGGING
 15 .debug_str    00000487  00000000  00000000  00011a28  2**0
                  CONTENTS, READONLY, DEBUGGING
 16 .comment      0000007c  00000000  00000000  00011eaf  2**0
                  CONTENTS, READONLY
 17 .debug_frame  000001e0  00000000  00000000  00011f2c  2**2
                  CONTENTS, READONLY, DEBUGGING
 18 .stabstr      0000003f  00000000  00000000  0001210c  2**0
                  CONTENTS, READONLY, DEBUGGING

Disassembly of section .text:

08000188 <__do_global_dtors_aux>:
 8000188:	b510      	push	{r4, lr}
 800018a:	4c05      	ldr	r4, [pc, #20]	; (80001a0 <__do_global_dtors_aux+0x18>)
 800018c:	7823      	ldrb	r3, [r4, #0]
 800018e:	b933      	cbnz	r3, 800019e <__do_global_dtors_aux+0x16>
 8000190:	4b04      	ldr	r3, [pc, #16]	; (80001a4 <__do_global_dtors_aux+0x1c>)
 8000192:	b113      	cbz	r3, 800019a <__do_global_dtors_aux+0x12>
 8000194:	4804      	ldr	r0, [pc, #16]	; (80001a8 <__do_global_dtors_aux+0x20>)
 8000196:	f3af 8000 	nop.w
 800019a:	2301      	movs	r3, #1
 800019c:	7023      	strb	r3, [r4, #0]
 800019e:	bd10      	pop	{r4, pc}
 80001a0:	20000000 	.word	0x20000000
 80001a4:	00000000 	.word	0x00000000
 80001a8:	08000460 	.word	0x08000460

080001ac <frame_dummy>:
 80001ac:	b508      	push	{r3, lr}
 80001ae:	4b03      	ldr	r3, [pc, #12]	; (80001bc <frame_dummy+0x10>)
 80001b0:	b11b      	cbz	r3, 80001ba <frame_dummy+0xe>
 80001b2:	4903      	ldr	r1, [pc, #12]	; (80001c0 <frame_dummy+0x14>)
 80001b4:	4803      	ldr	r0, [pc, #12]	; (80001c4 <frame_dummy+0x18>)
 80001b6:	f3af 8000 	nop.w
 80001ba:	bd08      	pop	{r3, pc}
 80001bc:	00000000 	.word	0x00000000
 80001c0:	20000004 	.word	0x20000004
 80001c4:	08000460 	.word	0x08000460

080001c8 <main>:

#include "stm32f4xx.h"


int main(void)
{
 80001c8:	b480      	push	{r7}
 80001ca:	af00      	add	r7, sp, #0

  RCC->AHB1ENR =0x00000005;
 80001cc:	4b11      	ldr	r3, [pc, #68]	; (8000214 <main+0x4c>)
 80001ce:	2205      	movs	r2, #5
 80001d0:	631a      	str	r2, [r3, #48]	; 0x30

  GPIOA->MODER &=~0x0C00;
 80001d2:	4a11      	ldr	r2, [pc, #68]	; (8000218 <main+0x50>)
 80001d4:	4b10      	ldr	r3, [pc, #64]	; (8000218 <main+0x50>)
 80001d6:	681b      	ldr	r3, [r3, #0]
 80001d8:	f423 6340 	bic.w	r3, r3, #3072	; 0xc00
 80001dc:	6013      	str	r3, [r2, #0]
  GPIOA->MODER |= 1<<(5*2);
 80001de:	4a0e      	ldr	r2, [pc, #56]	; (8000218 <main+0x50>)
 80001e0:	4b0d      	ldr	r3, [pc, #52]	; (8000218 <main+0x50>)
 80001e2:	681b      	ldr	r3, [r3, #0]
 80001e4:	f443 6380 	orr.w	r3, r3, #1024	; 0x400
 80001e8:	6013      	str	r3, [r2, #0]

  GPIOC->MODER &=~0x0C000000;
 80001ea:	4a0c      	ldr	r2, [pc, #48]	; (800021c <main+0x54>)
 80001ec:	4b0b      	ldr	r3, [pc, #44]	; (800021c <main+0x54>)
 80001ee:	681b      	ldr	r3, [r3, #0]
 80001f0:	f023 6340 	bic.w	r3, r3, #201326592	; 0xc000000
 80001f4:	6013      	str	r3, [r2, #0]


  while (1)
  {
	  if(!(GPIOC->IDR & 0x2000))
 80001f6:	4b09      	ldr	r3, [pc, #36]	; (800021c <main+0x54>)
 80001f8:	691b      	ldr	r3, [r3, #16]
 80001fa:	f403 5300 	and.w	r3, r3, #8192	; 0x2000
 80001fe:	2b00      	cmp	r3, #0
 8000200:	d103      	bne.n	800020a <main+0x42>
	  {
		  GPIOA->BSRRL = 1<<5;
 8000202:	4b05      	ldr	r3, [pc, #20]	; (8000218 <main+0x50>)
 8000204:	2220      	movs	r2, #32
 8000206:	831a      	strh	r2, [r3, #24]
 8000208:	e7f5      	b.n	80001f6 <main+0x2e>
	  }
	  else
	  {
		  GPIOA->BSRRH = 1<<5;
 800020a:	4b03      	ldr	r3, [pc, #12]	; (8000218 <main+0x50>)
 800020c:	2220      	movs	r2, #32
 800020e:	835a      	strh	r2, [r3, #26]
	  if(!(GPIOC->IDR & 0x2000))
 8000210:	e7f1      	b.n	80001f6 <main+0x2e>
 8000212:	bf00      	nop
 8000214:	40023800 	.word	0x40023800
 8000218:	40020000 	.word	0x40020000
 800021c:	40020800 	.word	0x40020800

08000220 <Reset_Handler>:

    .section  .text.Reset_Handler
  .weak  Reset_Handler
  .type  Reset_Handler, %function
Reset_Handler:  
  ldr   sp, =_estack    /* Atollic update: set stack pointer */
 8000220:	f8df d034 	ldr.w	sp, [pc, #52]	; 8000258 <LoopFillZerobss+0x14>

/* Copy the data segment initializers from flash to SRAM */  
  movs  r1, #0
 8000224:	2100      	movs	r1, #0
  b  LoopCopyDataInit
 8000226:	e003      	b.n	8000230 <LoopCopyDataInit>

08000228 <CopyDataInit>:

CopyDataInit:
  ldr  r3, =_sidata
 8000228:	4b0c      	ldr	r3, [pc, #48]	; (800025c <LoopFillZerobss+0x18>)
  ldr  r3, [r3, r1]
 800022a:	585b      	ldr	r3, [r3, r1]
  str  r3, [r0, r1]
 800022c:	5043      	str	r3, [r0, r1]
  adds  r1, r1, #4
 800022e:	3104      	adds	r1, #4

08000230 <LoopCopyDataInit>:
    
LoopCopyDataInit:
  ldr  r0, =_sdata
 8000230:	480b      	ldr	r0, [pc, #44]	; (8000260 <LoopFillZerobss+0x1c>)
  ldr  r3, =_edata
 8000232:	4b0c      	ldr	r3, [pc, #48]	; (8000264 <LoopFillZerobss+0x20>)
  adds  r2, r0, r1
 8000234:	1842      	adds	r2, r0, r1
  cmp  r2, r3
 8000236:	429a      	cmp	r2, r3
  bcc  CopyDataInit
 8000238:	d3f6      	bcc.n	8000228 <CopyDataInit>
  ldr  r2, =_sbss
 800023a:	4a0b      	ldr	r2, [pc, #44]	; (8000268 <LoopFillZerobss+0x24>)
  b  LoopFillZerobss
 800023c:	e002      	b.n	8000244 <LoopFillZerobss>

0800023e <FillZerobss>:
/* Zero fill the bss segment. */  
FillZerobss:
  movs  r3, #0
 800023e:	2300      	movs	r3, #0
  str  r3, [r2], #4
 8000240:	f842 3b04 	str.w	r3, [r2], #4

08000244 <LoopFillZerobss>:
    
LoopFillZerobss:
  ldr  r3, = _ebss
 8000244:	4b09      	ldr	r3, [pc, #36]	; (800026c <LoopFillZerobss+0x28>)
  cmp  r2, r3
 8000246:	429a      	cmp	r2, r3
  bcc  FillZerobss
 8000248:	d3f9      	bcc.n	800023e <FillZerobss>

/* Call the clock system intitialization function.*/
  bl  SystemInit   
 800024a:	f000 f83d 	bl	80002c8 <SystemInit>
/* Call static constructors */
    bl __libc_init_array
 800024e:	f000 f8e3 	bl	8000418 <__libc_init_array>
/* Call the application's entry point.*/
  bl  main
 8000252:	f7ff ffb9 	bl	80001c8 <main>
  bx  lr    
 8000256:	4770      	bx	lr
  ldr   sp, =_estack    /* Atollic update: set stack pointer */
 8000258:	20018000 	.word	0x20018000
  ldr  r3, =_sidata
 800025c:	08000480 	.word	0x08000480
  ldr  r0, =_sdata
 8000260:	20000000 	.word	0x20000000
  ldr  r3, =_edata
 8000264:	20000000 	.word	0x20000000
  ldr  r2, =_sbss
 8000268:	20000000 	.word	0x20000000
  ldr  r3, = _ebss
 800026c:	2000001c 	.word	0x2000001c

08000270 <ADC_IRQHandler>:
 * @retval None       
*/
    .section  .text.Default_Handler,"ax",%progbits
Default_Handler:
Infinite_Loop:
  b  Infinite_Loop
 8000270:	e7fe      	b.n	8000270 <ADC_IRQHandler>

08000272 <NMI_Handler>:
  * @brief   This function handles NMI exception.
  * @param  None
  * @retval None
  */
void NMI_Handler(void)
{
 8000272:	b480      	push	{r7}
 8000274:	af00      	add	r7, sp, #0
}
 8000276:	bf00      	nop
 8000278:	46bd      	mov	sp, r7
 800027a:	bc80      	pop	{r7}
 800027c:	4770      	bx	lr

0800027e <HardFault_Handler>:
  * @brief  This function handles Hard Fault exception.
  * @param  None
  * @retval None
  */
void HardFault_Handler(void)
{
 800027e:	b480      	push	{r7}
 8000280:	af00      	add	r7, sp, #0
  /* Go to infinite loop when Hard Fault exception occurs */
  while (1)
 8000282:	e7fe      	b.n	8000282 <HardFault_Handler+0x4>

08000284 <MemManage_Handler>:
  * @brief  This function handles Memory Manage exception.
  * @param  None
  * @retval None
  */
void MemManage_Handler(void)
{
 8000284:	b480      	push	{r7}
 8000286:	af00      	add	r7, sp, #0
  /* Go to infinite loop when Memory Manage exception occurs */
  while (1)
 8000288:	e7fe      	b.n	8000288 <MemManage_Handler+0x4>

0800028a <BusFault_Handler>:
  * @brief  This function handles Bus Fault exception.
  * @param  None
  * @retval None
  */
void BusFault_Handler(void)
{
 800028a:	b480      	push	{r7}
 800028c:	af00      	add	r7, sp, #0
  /* Go to infinite loop when Bus Fault exception occurs */
  while (1)
 800028e:	e7fe      	b.n	800028e <BusFault_Handler+0x4>

08000290 <UsageFault_Handler>:
  * @brief  This function handles Usage Fault exception.
  * @param  None
  * @retval None
  */
void UsageFault_Handler(void)
{
 8000290:	b480      	push	{r7}
 8000292:	af00      	add	r7, sp, #0
  /* Go to infinite loop when Usage Fault exception occurs */
  while (1)
 8000294:	e7fe      	b.n	8000294 <UsageFault_Handler+0x4>

08000296 <SVC_Handler>:
  * @brief  This function handles SVCall exception.
  * @param  None
  * @retval None
  */
void SVC_Handler(void)
{
 8000296:	b480      	push	{r7}
 8000298:	af00      	add	r7, sp, #0
}
 800029a:	bf00      	nop
 800029c:	46bd      	mov	sp, r7
 800029e:	bc80      	pop	{r7}
 80002a0:	4770      	bx	lr

080002a2 <DebugMon_Handler>:
  * @brief  This function handles Debug Monitor exception.
  * @param  None
  * @retval None
  */
void DebugMon_Handler(void)
{
 80002a2:	b480      	push	{r7}
 80002a4:	af00      	add	r7, sp, #0
}
 80002a6:	bf00      	nop
 80002a8:	46bd      	mov	sp, r7
 80002aa:	bc80      	pop	{r7}
 80002ac:	4770      	bx	lr

080002ae <PendSV_Handler>:
  * @brief  This function handles PendSVC exception.
  * @param  None
  * @retval None
  */
void PendSV_Handler(void)
{
 80002ae:	b480      	push	{r7}
 80002b0:	af00      	add	r7, sp, #0
}
 80002b2:	bf00      	nop
 80002b4:	46bd      	mov	sp, r7
 80002b6:	bc80      	pop	{r7}
 80002b8:	4770      	bx	lr

080002ba <SysTick_Handler>:
  * @brief  This function handles SysTick Handler.
  * @param  None
  * @retval None
  */
void SysTick_Handler(void)
{
 80002ba:	b480      	push	{r7}
 80002bc:	af00      	add	r7, sp, #0
/*  TimingDelay_Decrement(); */
}
 80002be:	bf00      	nop
 80002c0:	46bd      	mov	sp, r7
 80002c2:	bc80      	pop	{r7}
 80002c4:	4770      	bx	lr
	...

080002c8 <SystemInit>:
  *         SystemFrequency variable.
  * @param  None
  * @retval None
  */
void SystemInit(void)
{
 80002c8:	b580      	push	{r7, lr}
 80002ca:	af00      	add	r7, sp, #0
  #if (__FPU_PRESENT == 1) && (__FPU_USED == 1)
    SCB->CPACR |= ((3UL << 10*2)|(3UL << 11*2));  /* set CP10 and CP11 Full Access */
  #endif
  /* Reset the RCC clock configuration to the default reset state ------------*/
  /* Set HSION bit */
  RCC->CR |= (uint32_t)0x00000001;
 80002cc:	4a12      	ldr	r2, [pc, #72]	; (8000318 <SystemInit+0x50>)
 80002ce:	4b12      	ldr	r3, [pc, #72]	; (8000318 <SystemInit+0x50>)
 80002d0:	681b      	ldr	r3, [r3, #0]
 80002d2:	f043 0301 	orr.w	r3, r3, #1
 80002d6:	6013      	str	r3, [r2, #0]

  /* Reset CFGR register */
  RCC->CFGR = 0x00000000;
 80002d8:	4b0f      	ldr	r3, [pc, #60]	; (8000318 <SystemInit+0x50>)
 80002da:	2200      	movs	r2, #0
 80002dc:	609a      	str	r2, [r3, #8]

  /* Reset HSEON, CSSON and PLLON bits */
  RCC->CR &= (uint32_t)0xFEF6FFFF;
 80002de:	4a0e      	ldr	r2, [pc, #56]	; (8000318 <SystemInit+0x50>)
 80002e0:	4b0d      	ldr	r3, [pc, #52]	; (8000318 <SystemInit+0x50>)
 80002e2:	681b      	ldr	r3, [r3, #0]
 80002e4:	f023 7384 	bic.w	r3, r3, #17301504	; 0x1080000
 80002e8:	f423 3380 	bic.w	r3, r3, #65536	; 0x10000
 80002ec:	6013      	str	r3, [r2, #0]

  /* Reset PLLCFGR register */
  RCC->PLLCFGR = 0x24003010;
 80002ee:	4b0a      	ldr	r3, [pc, #40]	; (8000318 <SystemInit+0x50>)
 80002f0:	4a0a      	ldr	r2, [pc, #40]	; (800031c <SystemInit+0x54>)
 80002f2:	605a      	str	r2, [r3, #4]

  /* Reset HSEBYP bit */
  RCC->CR &= (uint32_t)0xFFFBFFFF;
 80002f4:	4a08      	ldr	r2, [pc, #32]	; (8000318 <SystemInit+0x50>)
 80002f6:	4b08      	ldr	r3, [pc, #32]	; (8000318 <SystemInit+0x50>)
 80002f8:	681b      	ldr	r3, [r3, #0]
 80002fa:	f423 2380 	bic.w	r3, r3, #262144	; 0x40000
 80002fe:	6013      	str	r3, [r2, #0]

  /* Disable all interrupts */
  RCC->CIR = 0x00000000;
 8000300:	4b05      	ldr	r3, [pc, #20]	; (8000318 <SystemInit+0x50>)
 8000302:	2200      	movs	r2, #0
 8000304:	60da      	str	r2, [r3, #12]
  SystemInit_ExtMemCtl(); 
#endif /* DATA_IN_ExtSRAM */
         
  /* Configure the System clock source, PLL Multiplier and Divider factors, 
     AHB/APBx prescalers and Flash settings ----------------------------------*/
  SetSysClock();
 8000306:	f000 f80d 	bl	8000324 <SetSysClock>

  /* Configure the Vector Table location add offset address ------------------*/
#ifdef VECT_TAB_SRAM
  SCB->VTOR = SRAM_BASE | VECT_TAB_OFFSET; /* Vector Table Relocation in Internal SRAM */
#else
  SCB->VTOR = FLASH_BASE | VECT_TAB_OFFSET; /* Vector Table Relocation in Internal FLASH */
 800030a:	4b05      	ldr	r3, [pc, #20]	; (8000320 <SystemInit+0x58>)
 800030c:	f04f 6200 	mov.w	r2, #134217728	; 0x8000000
 8000310:	609a      	str	r2, [r3, #8]
#endif
}
 8000312:	bf00      	nop
 8000314:	bd80      	pop	{r7, pc}
 8000316:	bf00      	nop
 8000318:	40023800 	.word	0x40023800
 800031c:	24003010 	.word	0x24003010
 8000320:	e000ed00 	.word	0xe000ed00

08000324 <SetSysClock>:
  *         is reset to the default reset state (done in SystemInit() function).   
  * @param  None
  * @retval None
  */
static void SetSysClock(void)
{
 8000324:	b480      	push	{r7}
 8000326:	b083      	sub	sp, #12
 8000328:	af00      	add	r7, sp, #0
/******************************************************************************/
/*            PLL (clocked by HSE) used as System clock source                */
/******************************************************************************/
  __IO uint32_t StartUpCounter = 0, HSEStatus = 0;
 800032a:	2300      	movs	r3, #0
 800032c:	607b      	str	r3, [r7, #4]
 800032e:	2300      	movs	r3, #0
 8000330:	603b      	str	r3, [r7, #0]
  
  /* Enable HSE */
  RCC->CR |= ((uint32_t)RCC_CR_HSEON);
 8000332:	4a35      	ldr	r2, [pc, #212]	; (8000408 <SetSysClock+0xe4>)
 8000334:	4b34      	ldr	r3, [pc, #208]	; (8000408 <SetSysClock+0xe4>)
 8000336:	681b      	ldr	r3, [r3, #0]
 8000338:	f443 3380 	orr.w	r3, r3, #65536	; 0x10000
 800033c:	6013      	str	r3, [r2, #0]
 
  /* Wait till HSE is ready and if Time out is reached exit */
  do
  {
    HSEStatus = RCC->CR & RCC_CR_HSERDY;
 800033e:	4b32      	ldr	r3, [pc, #200]	; (8000408 <SetSysClock+0xe4>)
 8000340:	681b      	ldr	r3, [r3, #0]
 8000342:	f403 3300 	and.w	r3, r3, #131072	; 0x20000
 8000346:	603b      	str	r3, [r7, #0]
    StartUpCounter++;
 8000348:	687b      	ldr	r3, [r7, #4]
 800034a:	3301      	adds	r3, #1
 800034c:	607b      	str	r3, [r7, #4]
  } while((HSEStatus == 0) && (StartUpCounter != HSE_STARTUP_TIMEOUT));
 800034e:	683b      	ldr	r3, [r7, #0]
 8000350:	2b00      	cmp	r3, #0
 8000352:	d103      	bne.n	800035c <SetSysClock+0x38>
 8000354:	687b      	ldr	r3, [r7, #4]
 8000356:	f5b3 6fa0 	cmp.w	r3, #1280	; 0x500
 800035a:	d1f0      	bne.n	800033e <SetSysClock+0x1a>

  if ((RCC->CR & RCC_CR_HSERDY) != RESET)
 800035c:	4b2a      	ldr	r3, [pc, #168]	; (8000408 <SetSysClock+0xe4>)
 800035e:	681b      	ldr	r3, [r3, #0]
 8000360:	f403 3300 	and.w	r3, r3, #131072	; 0x20000
 8000364:	2b00      	cmp	r3, #0
 8000366:	d002      	beq.n	800036e <SetSysClock+0x4a>
  {
    HSEStatus = (uint32_t)0x01;
 8000368:	2301      	movs	r3, #1
 800036a:	603b      	str	r3, [r7, #0]
 800036c:	e001      	b.n	8000372 <SetSysClock+0x4e>
  }
  else
  {
    HSEStatus = (uint32_t)0x00;
 800036e:	2300      	movs	r3, #0
 8000370:	603b      	str	r3, [r7, #0]
  }

  if (HSEStatus == (uint32_t)0x01)
 8000372:	683b      	ldr	r3, [r7, #0]
 8000374:	2b01      	cmp	r3, #1
 8000376:	d142      	bne.n	80003fe <SetSysClock+0xda>
  {
    /* Select regulator voltage output Scale 1 mode, System frequency up to 168 MHz */
    RCC->APB1ENR |= RCC_APB1ENR_PWREN;
 8000378:	4a23      	ldr	r2, [pc, #140]	; (8000408 <SetSysClock+0xe4>)
 800037a:	4b23      	ldr	r3, [pc, #140]	; (8000408 <SetSysClock+0xe4>)
 800037c:	6c1b      	ldr	r3, [r3, #64]	; 0x40
 800037e:	f043 5380 	orr.w	r3, r3, #268435456	; 0x10000000
 8000382:	6413      	str	r3, [r2, #64]	; 0x40
    PWR->CR |= PWR_CR_VOS;
 8000384:	4a21      	ldr	r2, [pc, #132]	; (800040c <SetSysClock+0xe8>)
 8000386:	4b21      	ldr	r3, [pc, #132]	; (800040c <SetSysClock+0xe8>)
 8000388:	681b      	ldr	r3, [r3, #0]
 800038a:	f443 4340 	orr.w	r3, r3, #49152	; 0xc000
 800038e:	6013      	str	r3, [r2, #0]

    /* HCLK = SYSCLK / 1*/
    RCC->CFGR |= RCC_CFGR_HPRE_DIV1;
 8000390:	4a1d      	ldr	r2, [pc, #116]	; (8000408 <SetSysClock+0xe4>)
 8000392:	4b1d      	ldr	r3, [pc, #116]	; (8000408 <SetSysClock+0xe4>)
 8000394:	689b      	ldr	r3, [r3, #8]
 8000396:	6093      	str	r3, [r2, #8]
      
    /* PCLK2 = HCLK / 2*/
    RCC->CFGR |= RCC_CFGR_PPRE2_DIV2;
 8000398:	4a1b      	ldr	r2, [pc, #108]	; (8000408 <SetSysClock+0xe4>)
 800039a:	4b1b      	ldr	r3, [pc, #108]	; (8000408 <SetSysClock+0xe4>)
 800039c:	689b      	ldr	r3, [r3, #8]
 800039e:	f443 4300 	orr.w	r3, r3, #32768	; 0x8000
 80003a2:	6093      	str	r3, [r2, #8]
    
    /* PCLK1 = HCLK / 4*/
    RCC->CFGR |= RCC_CFGR_PPRE1_DIV4;
 80003a4:	4a18      	ldr	r2, [pc, #96]	; (8000408 <SetSysClock+0xe4>)
 80003a6:	4b18      	ldr	r3, [pc, #96]	; (8000408 <SetSysClock+0xe4>)
 80003a8:	689b      	ldr	r3, [r3, #8]
 80003aa:	f443 53a0 	orr.w	r3, r3, #5120	; 0x1400
 80003ae:	6093      	str	r3, [r2, #8]

    /* Configure the main PLL */
    RCC->PLLCFGR = PLL_M | (PLL_N << 6) | (((PLL_P >> 1) -1) << 16) |
 80003b0:	4b15      	ldr	r3, [pc, #84]	; (8000408 <SetSysClock+0xe4>)
 80003b2:	4a17      	ldr	r2, [pc, #92]	; (8000410 <SetSysClock+0xec>)
 80003b4:	605a      	str	r2, [r3, #4]
                   (RCC_PLLCFGR_PLLSRC_HSE) | (PLL_Q << 24);

    /* Enable the main PLL */
    RCC->CR |= RCC_CR_PLLON;
 80003b6:	4a14      	ldr	r2, [pc, #80]	; (8000408 <SetSysClock+0xe4>)
 80003b8:	4b13      	ldr	r3, [pc, #76]	; (8000408 <SetSysClock+0xe4>)
 80003ba:	681b      	ldr	r3, [r3, #0]
 80003bc:	f043 7380 	orr.w	r3, r3, #16777216	; 0x1000000
 80003c0:	6013      	str	r3, [r2, #0]

    /* Wait till the main PLL is ready */
    while((RCC->CR & RCC_CR_PLLRDY) == 0)
 80003c2:	bf00      	nop
 80003c4:	4b10      	ldr	r3, [pc, #64]	; (8000408 <SetSysClock+0xe4>)
 80003c6:	681b      	ldr	r3, [r3, #0]
 80003c8:	f003 7300 	and.w	r3, r3, #33554432	; 0x2000000
 80003cc:	2b00      	cmp	r3, #0
 80003ce:	d0f9      	beq.n	80003c4 <SetSysClock+0xa0>
    {
    }
   
    /* Configure Flash prefetch, Instruction cache, Data cache and wait state */
    FLASH->ACR = FLASH_ACR_PRFTEN |FLASH_ACR_ICEN |FLASH_ACR_DCEN |FLASH_ACR_LATENCY_5WS;
 80003d0:	4b10      	ldr	r3, [pc, #64]	; (8000414 <SetSysClock+0xf0>)
 80003d2:	f240 7205 	movw	r2, #1797	; 0x705
 80003d6:	601a      	str	r2, [r3, #0]

    /* Select the main PLL as system clock source */
    RCC->CFGR &= (uint32_t)((uint32_t)~(RCC_CFGR_SW));
 80003d8:	4a0b      	ldr	r2, [pc, #44]	; (8000408 <SetSysClock+0xe4>)
 80003da:	4b0b      	ldr	r3, [pc, #44]	; (8000408 <SetSysClock+0xe4>)
 80003dc:	689b      	ldr	r3, [r3, #8]
 80003de:	f023 0303 	bic.w	r3, r3, #3
 80003e2:	6093      	str	r3, [r2, #8]
    RCC->CFGR |= RCC_CFGR_SW_PLL;
 80003e4:	4a08      	ldr	r2, [pc, #32]	; (8000408 <SetSysClock+0xe4>)
 80003e6:	4b08      	ldr	r3, [pc, #32]	; (8000408 <SetSysClock+0xe4>)
 80003e8:	689b      	ldr	r3, [r3, #8]
 80003ea:	f043 0302 	orr.w	r3, r3, #2
 80003ee:	6093      	str	r3, [r2, #8]

    /* Wait till the main PLL is used as system clock source */
    while ((RCC->CFGR & (uint32_t)RCC_CFGR_SWS ) != RCC_CFGR_SWS_PLL);
 80003f0:	bf00      	nop
 80003f2:	4b05      	ldr	r3, [pc, #20]	; (8000408 <SetSysClock+0xe4>)
 80003f4:	689b      	ldr	r3, [r3, #8]
 80003f6:	f003 030c 	and.w	r3, r3, #12
 80003fa:	2b08      	cmp	r3, #8
 80003fc:	d1f9      	bne.n	80003f2 <SetSysClock+0xce>
  else
  { /* If HSE fails to start-up, the application will have wrong clock
         configuration. User can add here some code to deal with this error */
  }

}
 80003fe:	bf00      	nop
 8000400:	370c      	adds	r7, #12
 8000402:	46bd      	mov	sp, r7
 8000404:	bc80      	pop	{r7}
 8000406:	4770      	bx	lr
 8000408:	40023800 	.word	0x40023800
 800040c:	40007000 	.word	0x40007000
 8000410:	07405419 	.word	0x07405419
 8000414:	40023c00 	.word	0x40023c00

08000418 <__libc_init_array>:
 8000418:	b570      	push	{r4, r5, r6, lr}
 800041a:	4e0d      	ldr	r6, [pc, #52]	; (8000450 <__libc_init_array+0x38>)
 800041c:	4c0d      	ldr	r4, [pc, #52]	; (8000454 <__libc_init_array+0x3c>)
 800041e:	1ba4      	subs	r4, r4, r6
 8000420:	10a4      	asrs	r4, r4, #2
 8000422:	2500      	movs	r5, #0
 8000424:	42a5      	cmp	r5, r4
 8000426:	d109      	bne.n	800043c <__libc_init_array+0x24>
 8000428:	4e0b      	ldr	r6, [pc, #44]	; (8000458 <__libc_init_array+0x40>)
 800042a:	4c0c      	ldr	r4, [pc, #48]	; (800045c <__libc_init_array+0x44>)
 800042c:	f000 f818 	bl	8000460 <_init>
 8000430:	1ba4      	subs	r4, r4, r6
 8000432:	10a4      	asrs	r4, r4, #2
 8000434:	2500      	movs	r5, #0
 8000436:	42a5      	cmp	r5, r4
 8000438:	d105      	bne.n	8000446 <__libc_init_array+0x2e>
 800043a:	bd70      	pop	{r4, r5, r6, pc}
 800043c:	f856 3025 	ldr.w	r3, [r6, r5, lsl #2]
 8000440:	4798      	blx	r3
 8000442:	3501      	adds	r5, #1
 8000444:	e7ee      	b.n	8000424 <__libc_init_array+0xc>
 8000446:	f856 3025 	ldr.w	r3, [r6, r5, lsl #2]
 800044a:	4798      	blx	r3
 800044c:	3501      	adds	r5, #1
 800044e:	e7f2      	b.n	8000436 <__libc_init_array+0x1e>
 8000450:	08000478 	.word	0x08000478
 8000454:	08000478 	.word	0x08000478
 8000458:	08000478 	.word	0x08000478
 800045c:	0800047c 	.word	0x0800047c

08000460 <_init>:
 8000460:	b5f8      	push	{r3, r4, r5, r6, r7, lr}
 8000462:	bf00      	nop
 8000464:	bcf8      	pop	{r3, r4, r5, r6, r7}
 8000466:	bc08      	pop	{r3}
 8000468:	469e      	mov	lr, r3
 800046a:	4770      	bx	lr

0800046c <_fini>:
 800046c:	b5f8      	push	{r3, r4, r5, r6, r7, lr}
 800046e:	bf00      	nop
 8000470:	bcf8      	pop	{r3, r4, r5, r6, r7}
 8000472:	bc08      	pop	{r3}
 8000474:	469e      	mov	lr, r3
 8000476:	4770      	bx	lr
