
Doga_Timer(PA5).elf:     file format elf32-littlearm

Sections:
Idx Name          Size      VMA       LMA       File off  Algn
  0 .isr_vector   00000188  08000000  08000000  00010000  2**0
                  CONTENTS, ALLOC, LOAD, READONLY, DATA
  1 .text         00000334  08000188  08000188  00010188  2**2
                  CONTENTS, ALLOC, LOAD, READONLY, CODE
  2 .rodata       00000000  080004bc  080004c4  000104c4  2**0
                  CONTENTS, ALLOC, LOAD, DATA
  3 .init_array   00000004  080004bc  080004bc  000104bc  2**2
                  CONTENTS, ALLOC, LOAD, DATA
  4 .fini_array   00000004  080004c0  080004c0  000104c0  2**2
                  CONTENTS, ALLOC, LOAD, DATA
  5 .data         00000000  20000000  20000000  000104c4  2**0
                  CONTENTS, ALLOC, LOAD, DATA
  6 .ccmram       00000000  10000000  10000000  000104c4  2**0
                  CONTENTS
  7 .bss          0000001c  20000000  20000000  00020000  2**2
                  ALLOC
  8 ._user_heap_stack 00000400  2000001c  2000001c  00020000  2**0
                  ALLOC
  9 .ARM.attributes 0000002a  00000000  00000000  000104c4  2**0
                  CONTENTS, READONLY
 10 .debug_info   00000ced  00000000  00000000  000104ee  2**0
                  CONTENTS, READONLY, DEBUGGING
 11 .debug_abbrev 000002a6  00000000  00000000  000111db  2**0
                  CONTENTS, READONLY, DEBUGGING
 12 .debug_aranges 000000d8  00000000  00000000  00011488  2**3
                  CONTENTS, READONLY, DEBUGGING
 13 .debug_ranges 000000a0  00000000  00000000  00011560  2**3
                  CONTENTS, READONLY, DEBUGGING
 14 .debug_line   00000662  00000000  00000000  00011600  2**0
                  CONTENTS, READONLY, DEBUGGING
 15 .debug_str    00000525  00000000  00000000  00011c62  2**0
                  CONTENTS, READONLY, DEBUGGING
 16 .comment      0000007c  00000000  00000000  00012187  2**0
                  CONTENTS, READONLY
 17 .debug_frame  000001e0  00000000  00000000  00012204  2**2
                  CONTENTS, READONLY, DEBUGGING
 18 .stabstr      0000003f  00000000  00000000  000123e4  2**0
                  CONTENTS, READONLY, DEBUGGING

Disassembly of section .text:

08000188 <__do_global_dtors_aux>:
 8000188:	b510      	push	{r4, lr}
 800018a:	4c05      	ldr	r4, [pc, #20]	; (80001a0 <__do_global_dtors_aux+0x18>)
 800018c:	7823      	ldrb	r3, [r4, #0]
 800018e:	b933      	cbnz	r3, 800019e <__do_global_dtors_aux+0x16>
 8000190:	4b04      	ldr	r3, [pc, #16]	; (80001a4 <__do_global_dtors_aux+0x1c>)
 8000192:	b113      	cbz	r3, 800019a <__do_global_dtors_aux+0x12>
 8000194:	4804      	ldr	r0, [pc, #16]	; (80001a8 <__do_global_dtors_aux+0x20>)
 8000196:	f3af 8000 	nop.w
 800019a:	2301      	movs	r3, #1
 800019c:	7023      	strb	r3, [r4, #0]
 800019e:	bd10      	pop	{r4, pc}
 80001a0:	20000000 	.word	0x20000000
 80001a4:	00000000 	.word	0x00000000
 80001a8:	080004a4 	.word	0x080004a4

080001ac <frame_dummy>:
 80001ac:	b508      	push	{r3, lr}
 80001ae:	4b03      	ldr	r3, [pc, #12]	; (80001bc <frame_dummy+0x10>)
 80001b0:	b11b      	cbz	r3, 80001ba <frame_dummy+0xe>
 80001b2:	4903      	ldr	r1, [pc, #12]	; (80001c0 <frame_dummy+0x14>)
 80001b4:	4803      	ldr	r0, [pc, #12]	; (80001c4 <frame_dummy+0x18>)
 80001b6:	f3af 8000 	nop.w
 80001ba:	bd08      	pop	{r3, pc}
 80001bc:	00000000 	.word	0x00000000
 80001c0:	20000004 	.word	0x20000004
 80001c4:	080004a4 	.word	0x080004a4

080001c8 <main>:
#include "stm32f4xx.h"

int main(void)
{
 80001c8:	b480      	push	{r7}
 80001ca:	af00      	add	r7, sp, #0

  RCC->AHB1ENR |=1;
 80001cc:	4a23      	ldr	r2, [pc, #140]	; (800025c <main+0x94>)
 80001ce:	4b23      	ldr	r3, [pc, #140]	; (800025c <main+0x94>)
 80001d0:	6b1b      	ldr	r3, [r3, #48]	; 0x30
 80001d2:	f043 0301 	orr.w	r3, r3, #1
 80001d6:	6313      	str	r3, [r2, #48]	; 0x30
  RCC->APB1ENR |=1;
 80001d8:	4a20      	ldr	r2, [pc, #128]	; (800025c <main+0x94>)
 80001da:	4b20      	ldr	r3, [pc, #128]	; (800025c <main+0x94>)
 80001dc:	6c1b      	ldr	r3, [r3, #64]	; 0x40
 80001de:	f043 0301 	orr.w	r3, r3, #1
 80001e2:	6413      	str	r3, [r2, #64]	; 0x40
  GPIOA->MODER &= ~(0x00000C00); //PA5 CLEARED
 80001e4:	4a1e      	ldr	r2, [pc, #120]	; (8000260 <main+0x98>)
 80001e6:	4b1e      	ldr	r3, [pc, #120]	; (8000260 <main+0x98>)
 80001e8:	681b      	ldr	r3, [r3, #0]
 80001ea:	f423 6340 	bic.w	r3, r3, #3072	; 0xc00
 80001ee:	6013      	str	r3, [r2, #0]
  GPIOA->MODER |= 1<<(2*5);      //PA5 AS GPIO OUTPUT MODE
 80001f0:	4a1b      	ldr	r2, [pc, #108]	; (8000260 <main+0x98>)
 80001f2:	4b1b      	ldr	r3, [pc, #108]	; (8000260 <main+0x98>)
 80001f4:	681b      	ldr	r3, [r3, #0]
 80001f6:	f443 6380 	orr.w	r3, r3, #1024	; 0x400
 80001fa:	6013      	str	r3, [r2, #0]
  GPIOA->OSPEEDR =0x00000C00;
 80001fc:	4b18      	ldr	r3, [pc, #96]	; (8000260 <main+0x98>)
 80001fe:	f44f 6240 	mov.w	r2, #3072	; 0xc00
 8000202:	609a      	str	r2, [r3, #8]

  TIM2->PSC = 1600-1;
 8000204:	f04f 4380 	mov.w	r3, #1073741824	; 0x40000000
 8000208:	f240 623f 	movw	r2, #1599	; 0x63f
 800020c:	851a      	strh	r2, [r3, #40]	; 0x28
  TIM2->ARR = 10000 - 1;
 800020e:	f04f 4380 	mov.w	r3, #1073741824	; 0x40000000
 8000212:	f242 720f 	movw	r2, #9999	; 0x270f
 8000216:	62da      	str	r2, [r3, #44]	; 0x2c
  TIM2->CNT = 0;
 8000218:	f04f 4380 	mov.w	r3, #1073741824	; 0x40000000
 800021c:	2200      	movs	r2, #0
 800021e:	625a      	str	r2, [r3, #36]	; 0x24
  TIM2->CR1 =1;
 8000220:	f04f 4380 	mov.w	r3, #1073741824	; 0x40000000
 8000224:	2201      	movs	r2, #1
 8000226:	801a      	strh	r2, [r3, #0]

  while (1)
  {
	while(!(TIM2->SR & 1)) {}
 8000228:	bf00      	nop
 800022a:	f04f 4380 	mov.w	r3, #1073741824	; 0x40000000
 800022e:	8a1b      	ldrh	r3, [r3, #16]
 8000230:	b29b      	uxth	r3, r3
 8000232:	f003 0301 	and.w	r3, r3, #1
 8000236:	2b00      	cmp	r3, #0
 8000238:	d0f7      	beq.n	800022a <main+0x62>
	TIM2->SR &= ~ 1;
 800023a:	f04f 4280 	mov.w	r2, #1073741824	; 0x40000000
 800023e:	f04f 4380 	mov.w	r3, #1073741824	; 0x40000000
 8000242:	8a1b      	ldrh	r3, [r3, #16]
 8000244:	b29b      	uxth	r3, r3
 8000246:	f023 0301 	bic.w	r3, r3, #1
 800024a:	b29b      	uxth	r3, r3
 800024c:	8213      	strh	r3, [r2, #16]

	GPIOA->ODR ^= 1<<5;
 800024e:	4a04      	ldr	r2, [pc, #16]	; (8000260 <main+0x98>)
 8000250:	4b03      	ldr	r3, [pc, #12]	; (8000260 <main+0x98>)
 8000252:	695b      	ldr	r3, [r3, #20]
 8000254:	f083 0320 	eor.w	r3, r3, #32
 8000258:	6153      	str	r3, [r2, #20]
	while(!(TIM2->SR & 1)) {}
 800025a:	e7e5      	b.n	8000228 <main+0x60>
 800025c:	40023800 	.word	0x40023800
 8000260:	40020000 	.word	0x40020000

08000264 <Reset_Handler>:

    .section  .text.Reset_Handler
  .weak  Reset_Handler
  .type  Reset_Handler, %function
Reset_Handler:  
  ldr   sp, =_estack    /* Atollic update: set stack pointer */
 8000264:	f8df d034 	ldr.w	sp, [pc, #52]	; 800029c <LoopFillZerobss+0x14>

/* Copy the data segment initializers from flash to SRAM */  
  movs  r1, #0
 8000268:	2100      	movs	r1, #0
  b  LoopCopyDataInit
 800026a:	e003      	b.n	8000274 <LoopCopyDataInit>

0800026c <CopyDataInit>:

CopyDataInit:
  ldr  r3, =_sidata
 800026c:	4b0c      	ldr	r3, [pc, #48]	; (80002a0 <LoopFillZerobss+0x18>)
  ldr  r3, [r3, r1]
 800026e:	585b      	ldr	r3, [r3, r1]
  str  r3, [r0, r1]
 8000270:	5043      	str	r3, [r0, r1]
  adds  r1, r1, #4
 8000272:	3104      	adds	r1, #4

08000274 <LoopCopyDataInit>:
    
LoopCopyDataInit:
  ldr  r0, =_sdata
 8000274:	480b      	ldr	r0, [pc, #44]	; (80002a4 <LoopFillZerobss+0x1c>)
  ldr  r3, =_edata
 8000276:	4b0c      	ldr	r3, [pc, #48]	; (80002a8 <LoopFillZerobss+0x20>)
  adds  r2, r0, r1
 8000278:	1842      	adds	r2, r0, r1
  cmp  r2, r3
 800027a:	429a      	cmp	r2, r3
  bcc  CopyDataInit
 800027c:	d3f6      	bcc.n	800026c <CopyDataInit>
  ldr  r2, =_sbss
 800027e:	4a0b      	ldr	r2, [pc, #44]	; (80002ac <LoopFillZerobss+0x24>)
  b  LoopFillZerobss
 8000280:	e002      	b.n	8000288 <LoopFillZerobss>

08000282 <FillZerobss>:
/* Zero fill the bss segment. */  
FillZerobss:
  movs  r3, #0
 8000282:	2300      	movs	r3, #0
  str  r3, [r2], #4
 8000284:	f842 3b04 	str.w	r3, [r2], #4

08000288 <LoopFillZerobss>:
    
LoopFillZerobss:
  ldr  r3, = _ebss
 8000288:	4b09      	ldr	r3, [pc, #36]	; (80002b0 <LoopFillZerobss+0x28>)
  cmp  r2, r3
 800028a:	429a      	cmp	r2, r3
  bcc  FillZerobss
 800028c:	d3f9      	bcc.n	8000282 <FillZerobss>

/* Call the clock system intitialization function.*/
  bl  SystemInit   
 800028e:	f000 f83d 	bl	800030c <SystemInit>
/* Call static constructors */
    bl __libc_init_array
 8000292:	f000 f8e3 	bl	800045c <__libc_init_array>
/* Call the application's entry point.*/
  bl  main
 8000296:	f7ff ff97 	bl	80001c8 <main>
  bx  lr    
 800029a:	4770      	bx	lr
  ldr   sp, =_estack    /* Atollic update: set stack pointer */
 800029c:	20018000 	.word	0x20018000
  ldr  r3, =_sidata
 80002a0:	080004c4 	.word	0x080004c4
  ldr  r0, =_sdata
 80002a4:	20000000 	.word	0x20000000
  ldr  r3, =_edata
 80002a8:	20000000 	.word	0x20000000
  ldr  r2, =_sbss
 80002ac:	20000000 	.word	0x20000000
  ldr  r3, = _ebss
 80002b0:	2000001c 	.word	0x2000001c

080002b4 <ADC_IRQHandler>:
 * @retval None       
*/
    .section  .text.Default_Handler,"ax",%progbits
Default_Handler:
Infinite_Loop:
  b  Infinite_Loop
 80002b4:	e7fe      	b.n	80002b4 <ADC_IRQHandler>

080002b6 <NMI_Handler>:
  * @brief   This function handles NMI exception.
  * @param  None
  * @retval None
  */
void NMI_Handler(void)
{
 80002b6:	b480      	push	{r7}
 80002b8:	af00      	add	r7, sp, #0
}
 80002ba:	bf00      	nop
 80002bc:	46bd      	mov	sp, r7
 80002be:	bc80      	pop	{r7}
 80002c0:	4770      	bx	lr

080002c2 <HardFault_Handler>:
  * @brief  This function handles Hard Fault exception.
  * @param  None
  * @retval None
  */
void HardFault_Handler(void)
{
 80002c2:	b480      	push	{r7}
 80002c4:	af00      	add	r7, sp, #0
  /* Go to infinite loop when Hard Fault exception occurs */
  while (1)
 80002c6:	e7fe      	b.n	80002c6 <HardFault_Handler+0x4>

080002c8 <MemManage_Handler>:
  * @brief  This function handles Memory Manage exception.
  * @param  None
  * @retval None
  */
void MemManage_Handler(void)
{
 80002c8:	b480      	push	{r7}
 80002ca:	af00      	add	r7, sp, #0
  /* Go to infinite loop when Memory Manage exception occurs */
  while (1)
 80002cc:	e7fe      	b.n	80002cc <MemManage_Handler+0x4>

080002ce <BusFault_Handler>:
  * @brief  This function handles Bus Fault exception.
  * @param  None
  * @retval None
  */
void BusFault_Handler(void)
{
 80002ce:	b480      	push	{r7}
 80002d0:	af00      	add	r7, sp, #0
  /* Go to infinite loop when Bus Fault exception occurs */
  while (1)
 80002d2:	e7fe      	b.n	80002d2 <BusFault_Handler+0x4>

080002d4 <UsageFault_Handler>:
  * @brief  This function handles Usage Fault exception.
  * @param  None
  * @retval None
  */
void UsageFault_Handler(void)
{
 80002d4:	b480      	push	{r7}
 80002d6:	af00      	add	r7, sp, #0
  /* Go to infinite loop when Usage Fault exception occurs */
  while (1)
 80002d8:	e7fe      	b.n	80002d8 <UsageFault_Handler+0x4>

080002da <SVC_Handler>:
  * @brief  This function handles SVCall exception.
  * @param  None
  * @retval None
  */
void SVC_Handler(void)
{
 80002da:	b480      	push	{r7}
 80002dc:	af00      	add	r7, sp, #0
}
 80002de:	bf00      	nop
 80002e0:	46bd      	mov	sp, r7
 80002e2:	bc80      	pop	{r7}
 80002e4:	4770      	bx	lr

080002e6 <DebugMon_Handler>:
  * @brief  This function handles Debug Monitor exception.
  * @param  None
  * @retval None
  */
void DebugMon_Handler(void)
{
 80002e6:	b480      	push	{r7}
 80002e8:	af00      	add	r7, sp, #0
}
 80002ea:	bf00      	nop
 80002ec:	46bd      	mov	sp, r7
 80002ee:	bc80      	pop	{r7}
 80002f0:	4770      	bx	lr

080002f2 <PendSV_Handler>:
  * @brief  This function handles PendSVC exception.
  * @param  None
  * @retval None
  */
void PendSV_Handler(void)
{
 80002f2:	b480      	push	{r7}
 80002f4:	af00      	add	r7, sp, #0
}
 80002f6:	bf00      	nop
 80002f8:	46bd      	mov	sp, r7
 80002fa:	bc80      	pop	{r7}
 80002fc:	4770      	bx	lr

080002fe <SysTick_Handler>:
  * @brief  This function handles SysTick Handler.
  * @param  None
  * @retval None
  */
void SysTick_Handler(void)
{
 80002fe:	b480      	push	{r7}
 8000300:	af00      	add	r7, sp, #0
/*  TimingDelay_Decrement(); */
}
 8000302:	bf00      	nop
 8000304:	46bd      	mov	sp, r7
 8000306:	bc80      	pop	{r7}
 8000308:	4770      	bx	lr
	...

0800030c <SystemInit>:
  *         SystemFrequency variable.
  * @param  None
  * @retval None
  */
void SystemInit(void)
{
 800030c:	b580      	push	{r7, lr}
 800030e:	af00      	add	r7, sp, #0
  #if (__FPU_PRESENT == 1) && (__FPU_USED == 1)
    SCB->CPACR |= ((3UL << 10*2)|(3UL << 11*2));  /* set CP10 and CP11 Full Access */
  #endif
  /* Reset the RCC clock configuration to the default reset state ------------*/
  /* Set HSION bit */
  RCC->CR |= (uint32_t)0x00000001;
 8000310:	4a12      	ldr	r2, [pc, #72]	; (800035c <SystemInit+0x50>)
 8000312:	4b12      	ldr	r3, [pc, #72]	; (800035c <SystemInit+0x50>)
 8000314:	681b      	ldr	r3, [r3, #0]
 8000316:	f043 0301 	orr.w	r3, r3, #1
 800031a:	6013      	str	r3, [r2, #0]

  /* Reset CFGR register */
  RCC->CFGR = 0x00000000;
 800031c:	4b0f      	ldr	r3, [pc, #60]	; (800035c <SystemInit+0x50>)
 800031e:	2200      	movs	r2, #0
 8000320:	609a      	str	r2, [r3, #8]

  /* Reset HSEON, CSSON and PLLON bits */
  RCC->CR &= (uint32_t)0xFEF6FFFF;
 8000322:	4a0e      	ldr	r2, [pc, #56]	; (800035c <SystemInit+0x50>)
 8000324:	4b0d      	ldr	r3, [pc, #52]	; (800035c <SystemInit+0x50>)
 8000326:	681b      	ldr	r3, [r3, #0]
 8000328:	f023 7384 	bic.w	r3, r3, #17301504	; 0x1080000
 800032c:	f423 3380 	bic.w	r3, r3, #65536	; 0x10000
 8000330:	6013      	str	r3, [r2, #0]

  /* Reset PLLCFGR register */
  RCC->PLLCFGR = 0x24003010;
 8000332:	4b0a      	ldr	r3, [pc, #40]	; (800035c <SystemInit+0x50>)
 8000334:	4a0a      	ldr	r2, [pc, #40]	; (8000360 <SystemInit+0x54>)
 8000336:	605a      	str	r2, [r3, #4]

  /* Reset HSEBYP bit */
  RCC->CR &= (uint32_t)0xFFFBFFFF;
 8000338:	4a08      	ldr	r2, [pc, #32]	; (800035c <SystemInit+0x50>)
 800033a:	4b08      	ldr	r3, [pc, #32]	; (800035c <SystemInit+0x50>)
 800033c:	681b      	ldr	r3, [r3, #0]
 800033e:	f423 2380 	bic.w	r3, r3, #262144	; 0x40000
 8000342:	6013      	str	r3, [r2, #0]

  /* Disable all interrupts */
  RCC->CIR = 0x00000000;
 8000344:	4b05      	ldr	r3, [pc, #20]	; (800035c <SystemInit+0x50>)
 8000346:	2200      	movs	r2, #0
 8000348:	60da      	str	r2, [r3, #12]
  SystemInit_ExtMemCtl(); 
#endif /* DATA_IN_ExtSRAM */
         
  /* Configure the System clock source, PLL Multiplier and Divider factors, 
     AHB/APBx prescalers and Flash settings ----------------------------------*/
  SetSysClock();
 800034a:	f000 f80d 	bl	8000368 <SetSysClock>

  /* Configure the Vector Table location add offset address ------------------*/
#ifdef VECT_TAB_SRAM
  SCB->VTOR = SRAM_BASE | VECT_TAB_OFFSET; /* Vector Table Relocation in Internal SRAM */
#else
  SCB->VTOR = FLASH_BASE | VECT_TAB_OFFSET; /* Vector Table Relocation in Internal FLASH */
 800034e:	4b05      	ldr	r3, [pc, #20]	; (8000364 <SystemInit+0x58>)
 8000350:	f04f 6200 	mov.w	r2, #134217728	; 0x8000000
 8000354:	609a      	str	r2, [r3, #8]
#endif
}
 8000356:	bf00      	nop
 8000358:	bd80      	pop	{r7, pc}
 800035a:	bf00      	nop
 800035c:	40023800 	.word	0x40023800
 8000360:	24003010 	.word	0x24003010
 8000364:	e000ed00 	.word	0xe000ed00

08000368 <SetSysClock>:
  *         is reset to the default reset state (done in SystemInit() function).   
  * @param  None
  * @retval None
  */
static void SetSysClock(void)
{
 8000368:	b480      	push	{r7}
 800036a:	b083      	sub	sp, #12
 800036c:	af00      	add	r7, sp, #0
/******************************************************************************/
/*            PLL (clocked by HSE) used as System clock source                */
/******************************************************************************/
  __IO uint32_t StartUpCounter = 0, HSEStatus = 0;
 800036e:	2300      	movs	r3, #0
 8000370:	607b      	str	r3, [r7, #4]
 8000372:	2300      	movs	r3, #0
 8000374:	603b      	str	r3, [r7, #0]
  
  /* Enable HSE */
  RCC->CR |= ((uint32_t)RCC_CR_HSEON);
 8000376:	4a35      	ldr	r2, [pc, #212]	; (800044c <SetSysClock+0xe4>)
 8000378:	4b34      	ldr	r3, [pc, #208]	; (800044c <SetSysClock+0xe4>)
 800037a:	681b      	ldr	r3, [r3, #0]
 800037c:	f443 3380 	orr.w	r3, r3, #65536	; 0x10000
 8000380:	6013      	str	r3, [r2, #0]
 
  /* Wait till HSE is ready and if Time out is reached exit */
  do
  {
    HSEStatus = RCC->CR & RCC_CR_HSERDY;
 8000382:	4b32      	ldr	r3, [pc, #200]	; (800044c <SetSysClock+0xe4>)
 8000384:	681b      	ldr	r3, [r3, #0]
 8000386:	f403 3300 	and.w	r3, r3, #131072	; 0x20000
 800038a:	603b      	str	r3, [r7, #0]
    StartUpCounter++;
 800038c:	687b      	ldr	r3, [r7, #4]
 800038e:	3301      	adds	r3, #1
 8000390:	607b      	str	r3, [r7, #4]
  } while((HSEStatus == 0) && (StartUpCounter != HSE_STARTUP_TIMEOUT));
 8000392:	683b      	ldr	r3, [r7, #0]
 8000394:	2b00      	cmp	r3, #0
 8000396:	d103      	bne.n	80003a0 <SetSysClock+0x38>
 8000398:	687b      	ldr	r3, [r7, #4]
 800039a:	f5b3 6fa0 	cmp.w	r3, #1280	; 0x500
 800039e:	d1f0      	bne.n	8000382 <SetSysClock+0x1a>

  if ((RCC->CR & RCC_CR_HSERDY) != RESET)
 80003a0:	4b2a      	ldr	r3, [pc, #168]	; (800044c <SetSysClock+0xe4>)
 80003a2:	681b      	ldr	r3, [r3, #0]
 80003a4:	f403 3300 	and.w	r3, r3, #131072	; 0x20000
 80003a8:	2b00      	cmp	r3, #0
 80003aa:	d002      	beq.n	80003b2 <SetSysClock+0x4a>
  {
    HSEStatus = (uint32_t)0x01;
 80003ac:	2301      	movs	r3, #1
 80003ae:	603b      	str	r3, [r7, #0]
 80003b0:	e001      	b.n	80003b6 <SetSysClock+0x4e>
  }
  else
  {
    HSEStatus = (uint32_t)0x00;
 80003b2:	2300      	movs	r3, #0
 80003b4:	603b      	str	r3, [r7, #0]
  }

  if (HSEStatus == (uint32_t)0x01)
 80003b6:	683b      	ldr	r3, [r7, #0]
 80003b8:	2b01      	cmp	r3, #1
 80003ba:	d142      	bne.n	8000442 <SetSysClock+0xda>
  {
    /* Select regulator voltage output Scale 1 mode, System frequency up to 168 MHz */
    RCC->APB1ENR |= RCC_APB1ENR_PWREN;
 80003bc:	4a23      	ldr	r2, [pc, #140]	; (800044c <SetSysClock+0xe4>)
 80003be:	4b23      	ldr	r3, [pc, #140]	; (800044c <SetSysClock+0xe4>)
 80003c0:	6c1b      	ldr	r3, [r3, #64]	; 0x40
 80003c2:	f043 5380 	orr.w	r3, r3, #268435456	; 0x10000000
 80003c6:	6413      	str	r3, [r2, #64]	; 0x40
    PWR->CR |= PWR_CR_VOS;
 80003c8:	4a21      	ldr	r2, [pc, #132]	; (8000450 <SetSysClock+0xe8>)
 80003ca:	4b21      	ldr	r3, [pc, #132]	; (8000450 <SetSysClock+0xe8>)
 80003cc:	681b      	ldr	r3, [r3, #0]
 80003ce:	f443 4340 	orr.w	r3, r3, #49152	; 0xc000
 80003d2:	6013      	str	r3, [r2, #0]

    /* HCLK = SYSCLK / 1*/
    RCC->CFGR |= RCC_CFGR_HPRE_DIV1;
 80003d4:	4a1d      	ldr	r2, [pc, #116]	; (800044c <SetSysClock+0xe4>)
 80003d6:	4b1d      	ldr	r3, [pc, #116]	; (800044c <SetSysClock+0xe4>)
 80003d8:	689b      	ldr	r3, [r3, #8]
 80003da:	6093      	str	r3, [r2, #8]
      
    /* PCLK2 = HCLK / 2*/
    RCC->CFGR |= RCC_CFGR_PPRE2_DIV2;
 80003dc:	4a1b      	ldr	r2, [pc, #108]	; (800044c <SetSysClock+0xe4>)
 80003de:	4b1b      	ldr	r3, [pc, #108]	; (800044c <SetSysClock+0xe4>)
 80003e0:	689b      	ldr	r3, [r3, #8]
 80003e2:	f443 4300 	orr.w	r3, r3, #32768	; 0x8000
 80003e6:	6093      	str	r3, [r2, #8]
    
    /* PCLK1 = HCLK / 4*/
    RCC->CFGR |= RCC_CFGR_PPRE1_DIV4;
 80003e8:	4a18      	ldr	r2, [pc, #96]	; (800044c <SetSysClock+0xe4>)
 80003ea:	4b18      	ldr	r3, [pc, #96]	; (800044c <SetSysClock+0xe4>)
 80003ec:	689b      	ldr	r3, [r3, #8]
 80003ee:	f443 53a0 	orr.w	r3, r3, #5120	; 0x1400
 80003f2:	6093      	str	r3, [r2, #8]

    /* Configure the main PLL */
    RCC->PLLCFGR = PLL_M | (PLL_N << 6) | (((PLL_P >> 1) -1) << 16) |
 80003f4:	4b15      	ldr	r3, [pc, #84]	; (800044c <SetSysClock+0xe4>)
 80003f6:	4a17      	ldr	r2, [pc, #92]	; (8000454 <SetSysClock+0xec>)
 80003f8:	605a      	str	r2, [r3, #4]
                   (RCC_PLLCFGR_PLLSRC_HSE) | (PLL_Q << 24);

    /* Enable the main PLL */
    RCC->CR |= RCC_CR_PLLON;
 80003fa:	4a14      	ldr	r2, [pc, #80]	; (800044c <SetSysClock+0xe4>)
 80003fc:	4b13      	ldr	r3, [pc, #76]	; (800044c <SetSysClock+0xe4>)
 80003fe:	681b      	ldr	r3, [r3, #0]
 8000400:	f043 7380 	orr.w	r3, r3, #16777216	; 0x1000000
 8000404:	6013      	str	r3, [r2, #0]

    /* Wait till the main PLL is ready */
    while((RCC->CR & RCC_CR_PLLRDY) == 0)
 8000406:	bf00      	nop
 8000408:	4b10      	ldr	r3, [pc, #64]	; (800044c <SetSysClock+0xe4>)
 800040a:	681b      	ldr	r3, [r3, #0]
 800040c:	f003 7300 	and.w	r3, r3, #33554432	; 0x2000000
 8000410:	2b00      	cmp	r3, #0
 8000412:	d0f9      	beq.n	8000408 <SetSysClock+0xa0>
    {
    }
   
    /* Configure Flash prefetch, Instruction cache, Data cache and wait state */
    FLASH->ACR = FLASH_ACR_PRFTEN |FLASH_ACR_ICEN |FLASH_ACR_DCEN |FLASH_ACR_LATENCY_5WS;
 8000414:	4b10      	ldr	r3, [pc, #64]	; (8000458 <SetSysClock+0xf0>)
 8000416:	f240 7205 	movw	r2, #1797	; 0x705
 800041a:	601a      	str	r2, [r3, #0]

    /* Select the main PLL as system clock source */
    RCC->CFGR &= (uint32_t)((uint32_t)~(RCC_CFGR_SW));
 800041c:	4a0b      	ldr	r2, [pc, #44]	; (800044c <SetSysClock+0xe4>)
 800041e:	4b0b      	ldr	r3, [pc, #44]	; (800044c <SetSysClock+0xe4>)
 8000420:	689b      	ldr	r3, [r3, #8]
 8000422:	f023 0303 	bic.w	r3, r3, #3
 8000426:	6093      	str	r3, [r2, #8]
    RCC->CFGR |= RCC_CFGR_SW_PLL;
 8000428:	4a08      	ldr	r2, [pc, #32]	; (800044c <SetSysClock+0xe4>)
 800042a:	4b08      	ldr	r3, [pc, #32]	; (800044c <SetSysClock+0xe4>)
 800042c:	689b      	ldr	r3, [r3, #8]
 800042e:	f043 0302 	orr.w	r3, r3, #2
 8000432:	6093      	str	r3, [r2, #8]

    /* Wait till the main PLL is used as system clock source */
    while ((RCC->CFGR & (uint32_t)RCC_CFGR_SWS ) != RCC_CFGR_SWS_PLL);
 8000434:	bf00      	nop
 8000436:	4b05      	ldr	r3, [pc, #20]	; (800044c <SetSysClock+0xe4>)
 8000438:	689b      	ldr	r3, [r3, #8]
 800043a:	f003 030c 	and.w	r3, r3, #12
 800043e:	2b08      	cmp	r3, #8
 8000440:	d1f9      	bne.n	8000436 <SetSysClock+0xce>
  else
  { /* If HSE fails to start-up, the application will have wrong clock
         configuration. User can add here some code to deal with this error */
  }

}
 8000442:	bf00      	nop
 8000444:	370c      	adds	r7, #12
 8000446:	46bd      	mov	sp, r7
 8000448:	bc80      	pop	{r7}
 800044a:	4770      	bx	lr
 800044c:	40023800 	.word	0x40023800
 8000450:	40007000 	.word	0x40007000
 8000454:	07405419 	.word	0x07405419
 8000458:	40023c00 	.word	0x40023c00

0800045c <__libc_init_array>:
 800045c:	b570      	push	{r4, r5, r6, lr}
 800045e:	4e0d      	ldr	r6, [pc, #52]	; (8000494 <__libc_init_array+0x38>)
 8000460:	4c0d      	ldr	r4, [pc, #52]	; (8000498 <__libc_init_array+0x3c>)
 8000462:	1ba4      	subs	r4, r4, r6
 8000464:	10a4      	asrs	r4, r4, #2
 8000466:	2500      	movs	r5, #0
 8000468:	42a5      	cmp	r5, r4
 800046a:	d109      	bne.n	8000480 <__libc_init_array+0x24>
 800046c:	4e0b      	ldr	r6, [pc, #44]	; (800049c <__libc_init_array+0x40>)
 800046e:	4c0c      	ldr	r4, [pc, #48]	; (80004a0 <__libc_init_array+0x44>)
 8000470:	f000 f818 	bl	80004a4 <_init>
 8000474:	1ba4      	subs	r4, r4, r6
 8000476:	10a4      	asrs	r4, r4, #2
 8000478:	2500      	movs	r5, #0
 800047a:	42a5      	cmp	r5, r4
 800047c:	d105      	bne.n	800048a <__libc_init_array+0x2e>
 800047e:	bd70      	pop	{r4, r5, r6, pc}
 8000480:	f856 3025 	ldr.w	r3, [r6, r5, lsl #2]
 8000484:	4798      	blx	r3
 8000486:	3501      	adds	r5, #1
 8000488:	e7ee      	b.n	8000468 <__libc_init_array+0xc>
 800048a:	f856 3025 	ldr.w	r3, [r6, r5, lsl #2]
 800048e:	4798      	blx	r3
 8000490:	3501      	adds	r5, #1
 8000492:	e7f2      	b.n	800047a <__libc_init_array+0x1e>
 8000494:	080004bc 	.word	0x080004bc
 8000498:	080004bc 	.word	0x080004bc
 800049c:	080004bc 	.word	0x080004bc
 80004a0:	080004c0 	.word	0x080004c0

080004a4 <_init>:
 80004a4:	b5f8      	push	{r3, r4, r5, r6, r7, lr}
 80004a6:	bf00      	nop
 80004a8:	bcf8      	pop	{r3, r4, r5, r6, r7}
 80004aa:	bc08      	pop	{r3}
 80004ac:	469e      	mov	lr, r3
 80004ae:	4770      	bx	lr

080004b0 <_fini>:
 80004b0:	b5f8      	push	{r3, r4, r5, r6, r7, lr}
 80004b2:	bf00      	nop
 80004b4:	bcf8      	pop	{r3, r4, r5, r6, r7}
 80004b6:	bc08      	pop	{r3}
 80004b8:	469e      	mov	lr, r3
 80004ba:	4770      	bx	lr
