
DogaUdemy1.elf:     file format elf32-littlearm

Sections:
Idx Name          Size      VMA       LMA       File off  Algn
  0 .isr_vector   00000188  08000000  08000000  00010000  2**0
                  CONTENTS, ALLOC, LOAD, READONLY, DATA
  1 .text         0000033c  08000188  08000188  00010188  2**2
                  CONTENTS, ALLOC, LOAD, READONLY, CODE
  2 .rodata       00000000  080004c4  080004cc  000104cc  2**0
                  CONTENTS, ALLOC, LOAD, DATA
  3 .init_array   00000004  080004c4  080004c4  000104c4  2**2
                  CONTENTS, ALLOC, LOAD, DATA
  4 .fini_array   00000004  080004c8  080004c8  000104c8  2**2
                  CONTENTS, ALLOC, LOAD, DATA
  5 .data         00000000  20000000  20000000  000104cc  2**0
                  CONTENTS, ALLOC, LOAD, DATA
  6 .ccmram       00000000  10000000  10000000  000104cc  2**0
                  CONTENTS
  7 .bss          0000001c  20000000  20000000  00020000  2**2
                  ALLOC
  8 ._user_heap_stack 00000400  2000001c  2000001c  00020000  2**0
                  ALLOC
  9 .ARM.attributes 0000002a  00000000  00000000  000104cc  2**0
                  CONTENTS, READONLY
 10 .debug_info   000008eb  00000000  00000000  000104f6  2**0
                  CONTENTS, READONLY, DEBUGGING
 11 .debug_abbrev 000002ae  00000000  00000000  00010de1  2**0
                  CONTENTS, READONLY, DEBUGGING
 12 .debug_aranges 000000e0  00000000  00000000  00011090  2**3
                  CONTENTS, READONLY, DEBUGGING
 13 .debug_ranges 000000a8  00000000  00000000  00011170  2**3
                  CONTENTS, READONLY, DEBUGGING
 14 .debug_line   00000687  00000000  00000000  00011218  2**0
                  CONTENTS, READONLY, DEBUGGING
 15 .debug_str    00000480  00000000  00000000  0001189f  2**0
                  CONTENTS, READONLY, DEBUGGING
 16 .comment      0000007c  00000000  00000000  00011d1f  2**0
                  CONTENTS, READONLY
 17 .debug_frame  00000210  00000000  00000000  00011d9c  2**2
                  CONTENTS, READONLY, DEBUGGING
 18 .stabstr      0000003f  00000000  00000000  00011fac  2**0
                  CONTENTS, READONLY, DEBUGGING

Disassembly of section .text:

08000188 <__do_global_dtors_aux>:
 8000188:	b510      	push	{r4, lr}
 800018a:	4c05      	ldr	r4, [pc, #20]	; (80001a0 <__do_global_dtors_aux+0x18>)
 800018c:	7823      	ldrb	r3, [r4, #0]
 800018e:	b933      	cbnz	r3, 800019e <__do_global_dtors_aux+0x16>
 8000190:	4b04      	ldr	r3, [pc, #16]	; (80001a4 <__do_global_dtors_aux+0x1c>)
 8000192:	b113      	cbz	r3, 800019a <__do_global_dtors_aux+0x12>
 8000194:	4804      	ldr	r0, [pc, #16]	; (80001a8 <__do_global_dtors_aux+0x20>)
 8000196:	f3af 8000 	nop.w
 800019a:	2301      	movs	r3, #1
 800019c:	7023      	strb	r3, [r4, #0]
 800019e:	bd10      	pop	{r4, pc}
 80001a0:	20000000 	.word	0x20000000
 80001a4:	00000000 	.word	0x00000000
 80001a8:	080004ac 	.word	0x080004ac

080001ac <frame_dummy>:
 80001ac:	b508      	push	{r3, lr}
 80001ae:	4b03      	ldr	r3, [pc, #12]	; (80001bc <frame_dummy+0x10>)
 80001b0:	b11b      	cbz	r3, 80001ba <frame_dummy+0xe>
 80001b2:	4903      	ldr	r1, [pc, #12]	; (80001c0 <frame_dummy+0x14>)
 80001b4:	4803      	ldr	r0, [pc, #12]	; (80001c4 <frame_dummy+0x18>)
 80001b6:	f3af 8000 	nop.w
 80001ba:	bd08      	pop	{r3, pc}
 80001bc:	00000000 	.word	0x00000000
 80001c0:	20000004 	.word	0x20000004
 80001c4:	080004ac 	.word	0x080004ac

080001c8 <main>:
#define AH1B_EN 0x40023830;
#define GPIOA_MODER_5 0x40020000;
#define GPIOA_OUT_5 0x40020014
void delayMs(int n);
int main(void)
{
 80001c8:	b580      	push	{r7, lr}
 80001ca:	b084      	sub	sp, #16
 80001cc:	af00      	add	r7, sp, #0
	uint32_t *pClkPeripEnable = (uint32_t*) AH1B_EN;
 80001ce:	4b16      	ldr	r3, [pc, #88]	; (8000228 <main+0x60>)
 80001d0:	60fb      	str	r3, [r7, #12]
	uint32_t *pPortAModeReg = (uint32_t*) GPIOA_MODER_5;
 80001d2:	4b16      	ldr	r3, [pc, #88]	; (800022c <main+0x64>)
 80001d4:	60bb      	str	r3, [r7, #8]
	uint32_t *pPortAOutReg = (uint32_t*) GPIOA_OUT_5;
 80001d6:	4b16      	ldr	r3, [pc, #88]	; (8000230 <main+0x68>)
 80001d8:	607b      	str	r3, [r7, #4]

	*pClkPeripEnable |= (1 << 0);
 80001da:	68fb      	ldr	r3, [r7, #12]
 80001dc:	681b      	ldr	r3, [r3, #0]
 80001de:	f043 0201 	orr.w	r2, r3, #1
 80001e2:	68fb      	ldr	r3, [r7, #12]
 80001e4:	601a      	str	r2, [r3, #0]
    *pPortAModeReg &= ~(3 << 10);
 80001e6:	68bb      	ldr	r3, [r7, #8]
 80001e8:	681b      	ldr	r3, [r3, #0]
 80001ea:	f423 6240 	bic.w	r2, r3, #3072	; 0xc00
 80001ee:	68bb      	ldr	r3, [r7, #8]
 80001f0:	601a      	str	r2, [r3, #0]
	*pPortAModeReg |= (1 << 10);
 80001f2:	68bb      	ldr	r3, [r7, #8]
 80001f4:	681b      	ldr	r3, [r3, #0]
 80001f6:	f443 6280 	orr.w	r2, r3, #1024	; 0x400
 80001fa:	68bb      	ldr	r3, [r7, #8]
 80001fc:	601a      	str	r2, [r3, #0]

	while(1){
		*pPortAOutReg |= (1 << 5);
 80001fe:	687b      	ldr	r3, [r7, #4]
 8000200:	681b      	ldr	r3, [r3, #0]
 8000202:	f043 0220 	orr.w	r2, r3, #32
 8000206:	687b      	ldr	r3, [r7, #4]
 8000208:	601a      	str	r2, [r3, #0]
		delayMs(500);
 800020a:	f44f 70fa 	mov.w	r0, #500	; 0x1f4
 800020e:	f000 f811 	bl	8000234 <delayMs>
		*pPortAOutReg &= ~(1 << 5);
 8000212:	687b      	ldr	r3, [r7, #4]
 8000214:	681b      	ldr	r3, [r3, #0]
 8000216:	f023 0220 	bic.w	r2, r3, #32
 800021a:	687b      	ldr	r3, [r7, #4]
 800021c:	601a      	str	r2, [r3, #0]
		delayMs(500);
 800021e:	f44f 70fa 	mov.w	r0, #500	; 0x1f4
 8000222:	f000 f807 	bl	8000234 <delayMs>
		*pPortAOutReg |= (1 << 5);
 8000226:	e7ea      	b.n	80001fe <main+0x36>
 8000228:	40023830 	.word	0x40023830
 800022c:	40020000 	.word	0x40020000
 8000230:	40020014 	.word	0x40020014

08000234 <delayMs>:
	}

}

void delayMs(int n){
 8000234:	b480      	push	{r7}
 8000236:	b085      	sub	sp, #20
 8000238:	af00      	add	r7, sp, #0
 800023a:	6078      	str	r0, [r7, #4]
	int i;
	for(; n>0 ; n--)
 800023c:	e00d      	b.n	800025a <delayMs+0x26>
		for(i=0;i<3195;i++);
 800023e:	2300      	movs	r3, #0
 8000240:	60fb      	str	r3, [r7, #12]
 8000242:	e002      	b.n	800024a <delayMs+0x16>
 8000244:	68fb      	ldr	r3, [r7, #12]
 8000246:	3301      	adds	r3, #1
 8000248:	60fb      	str	r3, [r7, #12]
 800024a:	68fb      	ldr	r3, [r7, #12]
 800024c:	f640 427a 	movw	r2, #3194	; 0xc7a
 8000250:	4293      	cmp	r3, r2
 8000252:	ddf7      	ble.n	8000244 <delayMs+0x10>
	for(; n>0 ; n--)
 8000254:	687b      	ldr	r3, [r7, #4]
 8000256:	3b01      	subs	r3, #1
 8000258:	607b      	str	r3, [r7, #4]
 800025a:	687b      	ldr	r3, [r7, #4]
 800025c:	2b00      	cmp	r3, #0
 800025e:	dcee      	bgt.n	800023e <delayMs+0xa>
}
 8000260:	bf00      	nop
 8000262:	3714      	adds	r7, #20
 8000264:	46bd      	mov	sp, r7
 8000266:	bc80      	pop	{r7}
 8000268:	4770      	bx	lr
	...

0800026c <Reset_Handler>:

    .section  .text.Reset_Handler
  .weak  Reset_Handler
  .type  Reset_Handler, %function
Reset_Handler:  
  ldr   sp, =_estack    /* Atollic update: set stack pointer */
 800026c:	f8df d034 	ldr.w	sp, [pc, #52]	; 80002a4 <LoopFillZerobss+0x14>

/* Copy the data segment initializers from flash to SRAM */  
  movs  r1, #0
 8000270:	2100      	movs	r1, #0
  b  LoopCopyDataInit
 8000272:	e003      	b.n	800027c <LoopCopyDataInit>

08000274 <CopyDataInit>:

CopyDataInit:
  ldr  r3, =_sidata
 8000274:	4b0c      	ldr	r3, [pc, #48]	; (80002a8 <LoopFillZerobss+0x18>)
  ldr  r3, [r3, r1]
 8000276:	585b      	ldr	r3, [r3, r1]
  str  r3, [r0, r1]
 8000278:	5043      	str	r3, [r0, r1]
  adds  r1, r1, #4
 800027a:	3104      	adds	r1, #4

0800027c <LoopCopyDataInit>:
    
LoopCopyDataInit:
  ldr  r0, =_sdata
 800027c:	480b      	ldr	r0, [pc, #44]	; (80002ac <LoopFillZerobss+0x1c>)
  ldr  r3, =_edata
 800027e:	4b0c      	ldr	r3, [pc, #48]	; (80002b0 <LoopFillZerobss+0x20>)
  adds  r2, r0, r1
 8000280:	1842      	adds	r2, r0, r1
  cmp  r2, r3
 8000282:	429a      	cmp	r2, r3
  bcc  CopyDataInit
 8000284:	d3f6      	bcc.n	8000274 <CopyDataInit>
  ldr  r2, =_sbss
 8000286:	4a0b      	ldr	r2, [pc, #44]	; (80002b4 <LoopFillZerobss+0x24>)
  b  LoopFillZerobss
 8000288:	e002      	b.n	8000290 <LoopFillZerobss>

0800028a <FillZerobss>:
/* Zero fill the bss segment. */  
FillZerobss:
  movs  r3, #0
 800028a:	2300      	movs	r3, #0
  str  r3, [r2], #4
 800028c:	f842 3b04 	str.w	r3, [r2], #4

08000290 <LoopFillZerobss>:
    
LoopFillZerobss:
  ldr  r3, = _ebss
 8000290:	4b09      	ldr	r3, [pc, #36]	; (80002b8 <LoopFillZerobss+0x28>)
  cmp  r2, r3
 8000292:	429a      	cmp	r2, r3
  bcc  FillZerobss
 8000294:	d3f9      	bcc.n	800028a <FillZerobss>

/* Call the clock system intitialization function.*/
  bl  SystemInit   
 8000296:	f000 f83d 	bl	8000314 <SystemInit>
/* Call static constructors */
    bl __libc_init_array
 800029a:	f000 f8e3 	bl	8000464 <__libc_init_array>
/* Call the application's entry point.*/
  bl  main
 800029e:	f7ff ff93 	bl	80001c8 <main>
  bx  lr    
 80002a2:	4770      	bx	lr
  ldr   sp, =_estack    /* Atollic update: set stack pointer */
 80002a4:	20018000 	.word	0x20018000
  ldr  r3, =_sidata
 80002a8:	080004cc 	.word	0x080004cc
  ldr  r0, =_sdata
 80002ac:	20000000 	.word	0x20000000
  ldr  r3, =_edata
 80002b0:	20000000 	.word	0x20000000
  ldr  r2, =_sbss
 80002b4:	20000000 	.word	0x20000000
  ldr  r3, = _ebss
 80002b8:	2000001c 	.word	0x2000001c

080002bc <ADC_IRQHandler>:
 * @retval None       
*/
    .section  .text.Default_Handler,"ax",%progbits
Default_Handler:
Infinite_Loop:
  b  Infinite_Loop
 80002bc:	e7fe      	b.n	80002bc <ADC_IRQHandler>

080002be <NMI_Handler>:
  * @brief   This function handles NMI exception.
  * @param  None
  * @retval None
  */
void NMI_Handler(void)
{
 80002be:	b480      	push	{r7}
 80002c0:	af00      	add	r7, sp, #0
}
 80002c2:	bf00      	nop
 80002c4:	46bd      	mov	sp, r7
 80002c6:	bc80      	pop	{r7}
 80002c8:	4770      	bx	lr

080002ca <HardFault_Handler>:
  * @brief  This function handles Hard Fault exception.
  * @param  None
  * @retval None
  */
void HardFault_Handler(void)
{
 80002ca:	b480      	push	{r7}
 80002cc:	af00      	add	r7, sp, #0
  /* Go to infinite loop when Hard Fault exception occurs */
  while (1)
 80002ce:	e7fe      	b.n	80002ce <HardFault_Handler+0x4>

080002d0 <MemManage_Handler>:
  * @brief  This function handles Memory Manage exception.
  * @param  None
  * @retval None
  */
void MemManage_Handler(void)
{
 80002d0:	b480      	push	{r7}
 80002d2:	af00      	add	r7, sp, #0
  /* Go to infinite loop when Memory Manage exception occurs */
  while (1)
 80002d4:	e7fe      	b.n	80002d4 <MemManage_Handler+0x4>

080002d6 <BusFault_Handler>:
  * @brief  This function handles Bus Fault exception.
  * @param  None
  * @retval None
  */
void BusFault_Handler(void)
{
 80002d6:	b480      	push	{r7}
 80002d8:	af00      	add	r7, sp, #0
  /* Go to infinite loop when Bus Fault exception occurs */
  while (1)
 80002da:	e7fe      	b.n	80002da <BusFault_Handler+0x4>

080002dc <UsageFault_Handler>:
  * @brief  This function handles Usage Fault exception.
  * @param  None
  * @retval None
  */
void UsageFault_Handler(void)
{
 80002dc:	b480      	push	{r7}
 80002de:	af00      	add	r7, sp, #0
  /* Go to infinite loop when Usage Fault exception occurs */
  while (1)
 80002e0:	e7fe      	b.n	80002e0 <UsageFault_Handler+0x4>

080002e2 <SVC_Handler>:
  * @brief  This function handles SVCall exception.
  * @param  None
  * @retval None
  */
void SVC_Handler(void)
{
 80002e2:	b480      	push	{r7}
 80002e4:	af00      	add	r7, sp, #0
}
 80002e6:	bf00      	nop
 80002e8:	46bd      	mov	sp, r7
 80002ea:	bc80      	pop	{r7}
 80002ec:	4770      	bx	lr

080002ee <DebugMon_Handler>:
  * @brief  This function handles Debug Monitor exception.
  * @param  None
  * @retval None
  */
void DebugMon_Handler(void)
{
 80002ee:	b480      	push	{r7}
 80002f0:	af00      	add	r7, sp, #0
}
 80002f2:	bf00      	nop
 80002f4:	46bd      	mov	sp, r7
 80002f6:	bc80      	pop	{r7}
 80002f8:	4770      	bx	lr

080002fa <PendSV_Handler>:
  * @brief  This function handles PendSVC exception.
  * @param  None
  * @retval None
  */
void PendSV_Handler(void)
{
 80002fa:	b480      	push	{r7}
 80002fc:	af00      	add	r7, sp, #0
}
 80002fe:	bf00      	nop
 8000300:	46bd      	mov	sp, r7
 8000302:	bc80      	pop	{r7}
 8000304:	4770      	bx	lr

08000306 <SysTick_Handler>:
  * @brief  This function handles SysTick Handler.
  * @param  None
  * @retval None
  */
void SysTick_Handler(void)
{
 8000306:	b480      	push	{r7}
 8000308:	af00      	add	r7, sp, #0
/*  TimingDelay_Decrement(); */
}
 800030a:	bf00      	nop
 800030c:	46bd      	mov	sp, r7
 800030e:	bc80      	pop	{r7}
 8000310:	4770      	bx	lr
	...

08000314 <SystemInit>:
  *         SystemFrequency variable.
  * @param  None
  * @retval None
  */
void SystemInit(void)
{
 8000314:	b580      	push	{r7, lr}
 8000316:	af00      	add	r7, sp, #0
  #if (__FPU_PRESENT == 1) && (__FPU_USED == 1)
    SCB->CPACR |= ((3UL << 10*2)|(3UL << 11*2));  /* set CP10 and CP11 Full Access */
  #endif
  /* Reset the RCC clock configuration to the default reset state ------------*/
  /* Set HSION bit */
  RCC->CR |= (uint32_t)0x00000001;
 8000318:	4a12      	ldr	r2, [pc, #72]	; (8000364 <SystemInit+0x50>)
 800031a:	4b12      	ldr	r3, [pc, #72]	; (8000364 <SystemInit+0x50>)
 800031c:	681b      	ldr	r3, [r3, #0]
 800031e:	f043 0301 	orr.w	r3, r3, #1
 8000322:	6013      	str	r3, [r2, #0]

  /* Reset CFGR register */
  RCC->CFGR = 0x00000000;
 8000324:	4b0f      	ldr	r3, [pc, #60]	; (8000364 <SystemInit+0x50>)
 8000326:	2200      	movs	r2, #0
 8000328:	609a      	str	r2, [r3, #8]

  /* Reset HSEON, CSSON and PLLON bits */
  RCC->CR &= (uint32_t)0xFEF6FFFF;
 800032a:	4a0e      	ldr	r2, [pc, #56]	; (8000364 <SystemInit+0x50>)
 800032c:	4b0d      	ldr	r3, [pc, #52]	; (8000364 <SystemInit+0x50>)
 800032e:	681b      	ldr	r3, [r3, #0]
 8000330:	f023 7384 	bic.w	r3, r3, #17301504	; 0x1080000
 8000334:	f423 3380 	bic.w	r3, r3, #65536	; 0x10000
 8000338:	6013      	str	r3, [r2, #0]

  /* Reset PLLCFGR register */
  RCC->PLLCFGR = 0x24003010;
 800033a:	4b0a      	ldr	r3, [pc, #40]	; (8000364 <SystemInit+0x50>)
 800033c:	4a0a      	ldr	r2, [pc, #40]	; (8000368 <SystemInit+0x54>)
 800033e:	605a      	str	r2, [r3, #4]

  /* Reset HSEBYP bit */
  RCC->CR &= (uint32_t)0xFFFBFFFF;
 8000340:	4a08      	ldr	r2, [pc, #32]	; (8000364 <SystemInit+0x50>)
 8000342:	4b08      	ldr	r3, [pc, #32]	; (8000364 <SystemInit+0x50>)
 8000344:	681b      	ldr	r3, [r3, #0]
 8000346:	f423 2380 	bic.w	r3, r3, #262144	; 0x40000
 800034a:	6013      	str	r3, [r2, #0]

  /* Disable all interrupts */
  RCC->CIR = 0x00000000;
 800034c:	4b05      	ldr	r3, [pc, #20]	; (8000364 <SystemInit+0x50>)
 800034e:	2200      	movs	r2, #0
 8000350:	60da      	str	r2, [r3, #12]
  SystemInit_ExtMemCtl(); 
#endif /* DATA_IN_ExtSRAM */
         
  /* Configure the System clock source, PLL Multiplier and Divider factors, 
     AHB/APBx prescalers and Flash settings ----------------------------------*/
  SetSysClock();
 8000352:	f000 f80d 	bl	8000370 <SetSysClock>

  /* Configure the Vector Table location add offset address ------------------*/
#ifdef VECT_TAB_SRAM
  SCB->VTOR = SRAM_BASE | VECT_TAB_OFFSET; /* Vector Table Relocation in Internal SRAM */
#else
  SCB->VTOR = FLASH_BASE | VECT_TAB_OFFSET; /* Vector Table Relocation in Internal FLASH */
 8000356:	4b05      	ldr	r3, [pc, #20]	; (800036c <SystemInit+0x58>)
 8000358:	f04f 6200 	mov.w	r2, #134217728	; 0x8000000
 800035c:	609a      	str	r2, [r3, #8]
#endif
}
 800035e:	bf00      	nop
 8000360:	bd80      	pop	{r7, pc}
 8000362:	bf00      	nop
 8000364:	40023800 	.word	0x40023800
 8000368:	24003010 	.word	0x24003010
 800036c:	e000ed00 	.word	0xe000ed00

08000370 <SetSysClock>:
  *         is reset to the default reset state (done in SystemInit() function).   
  * @param  None
  * @retval None
  */
static void SetSysClock(void)
{
 8000370:	b480      	push	{r7}
 8000372:	b083      	sub	sp, #12
 8000374:	af00      	add	r7, sp, #0
/******************************************************************************/
/*            PLL (clocked by HSE) used as System clock source                */
/******************************************************************************/
  __IO uint32_t StartUpCounter = 0, HSEStatus = 0;
 8000376:	2300      	movs	r3, #0
 8000378:	607b      	str	r3, [r7, #4]
 800037a:	2300      	movs	r3, #0
 800037c:	603b      	str	r3, [r7, #0]
  
  /* Enable HSE */
  RCC->CR |= ((uint32_t)RCC_CR_HSEON);
 800037e:	4a35      	ldr	r2, [pc, #212]	; (8000454 <SetSysClock+0xe4>)
 8000380:	4b34      	ldr	r3, [pc, #208]	; (8000454 <SetSysClock+0xe4>)
 8000382:	681b      	ldr	r3, [r3, #0]
 8000384:	f443 3380 	orr.w	r3, r3, #65536	; 0x10000
 8000388:	6013      	str	r3, [r2, #0]
 
  /* Wait till HSE is ready and if Time out is reached exit */
  do
  {
    HSEStatus = RCC->CR & RCC_CR_HSERDY;
 800038a:	4b32      	ldr	r3, [pc, #200]	; (8000454 <SetSysClock+0xe4>)
 800038c:	681b      	ldr	r3, [r3, #0]
 800038e:	f403 3300 	and.w	r3, r3, #131072	; 0x20000
 8000392:	603b      	str	r3, [r7, #0]
    StartUpCounter++;
 8000394:	687b      	ldr	r3, [r7, #4]
 8000396:	3301      	adds	r3, #1
 8000398:	607b      	str	r3, [r7, #4]
  } while((HSEStatus == 0) && (StartUpCounter != HSE_STARTUP_TIMEOUT));
 800039a:	683b      	ldr	r3, [r7, #0]
 800039c:	2b00      	cmp	r3, #0
 800039e:	d103      	bne.n	80003a8 <SetSysClock+0x38>
 80003a0:	687b      	ldr	r3, [r7, #4]
 80003a2:	f5b3 6fa0 	cmp.w	r3, #1280	; 0x500
 80003a6:	d1f0      	bne.n	800038a <SetSysClock+0x1a>

  if ((RCC->CR & RCC_CR_HSERDY) != RESET)
 80003a8:	4b2a      	ldr	r3, [pc, #168]	; (8000454 <SetSysClock+0xe4>)
 80003aa:	681b      	ldr	r3, [r3, #0]
 80003ac:	f403 3300 	and.w	r3, r3, #131072	; 0x20000
 80003b0:	2b00      	cmp	r3, #0
 80003b2:	d002      	beq.n	80003ba <SetSysClock+0x4a>
  {
    HSEStatus = (uint32_t)0x01;
 80003b4:	2301      	movs	r3, #1
 80003b6:	603b      	str	r3, [r7, #0]
 80003b8:	e001      	b.n	80003be <SetSysClock+0x4e>
  }
  else
  {
    HSEStatus = (uint32_t)0x00;
 80003ba:	2300      	movs	r3, #0
 80003bc:	603b      	str	r3, [r7, #0]
  }

  if (HSEStatus == (uint32_t)0x01)
 80003be:	683b      	ldr	r3, [r7, #0]
 80003c0:	2b01      	cmp	r3, #1
 80003c2:	d142      	bne.n	800044a <SetSysClock+0xda>
  {
    /* Select regulator voltage output Scale 1 mode, System frequency up to 168 MHz */
    RCC->APB1ENR |= RCC_APB1ENR_PWREN;
 80003c4:	4a23      	ldr	r2, [pc, #140]	; (8000454 <SetSysClock+0xe4>)
 80003c6:	4b23      	ldr	r3, [pc, #140]	; (8000454 <SetSysClock+0xe4>)
 80003c8:	6c1b      	ldr	r3, [r3, #64]	; 0x40
 80003ca:	f043 5380 	orr.w	r3, r3, #268435456	; 0x10000000
 80003ce:	6413      	str	r3, [r2, #64]	; 0x40
    PWR->CR |= PWR_CR_VOS;
 80003d0:	4a21      	ldr	r2, [pc, #132]	; (8000458 <SetSysClock+0xe8>)
 80003d2:	4b21      	ldr	r3, [pc, #132]	; (8000458 <SetSysClock+0xe8>)
 80003d4:	681b      	ldr	r3, [r3, #0]
 80003d6:	f443 4340 	orr.w	r3, r3, #49152	; 0xc000
 80003da:	6013      	str	r3, [r2, #0]

    /* HCLK = SYSCLK / 1*/
    RCC->CFGR |= RCC_CFGR_HPRE_DIV1;
 80003dc:	4a1d      	ldr	r2, [pc, #116]	; (8000454 <SetSysClock+0xe4>)
 80003de:	4b1d      	ldr	r3, [pc, #116]	; (8000454 <SetSysClock+0xe4>)
 80003e0:	689b      	ldr	r3, [r3, #8]
 80003e2:	6093      	str	r3, [r2, #8]
      
    /* PCLK2 = HCLK / 2*/
    RCC->CFGR |= RCC_CFGR_PPRE2_DIV2;
 80003e4:	4a1b      	ldr	r2, [pc, #108]	; (8000454 <SetSysClock+0xe4>)
 80003e6:	4b1b      	ldr	r3, [pc, #108]	; (8000454 <SetSysClock+0xe4>)
 80003e8:	689b      	ldr	r3, [r3, #8]
 80003ea:	f443 4300 	orr.w	r3, r3, #32768	; 0x8000
 80003ee:	6093      	str	r3, [r2, #8]
    
    /* PCLK1 = HCLK / 4*/
    RCC->CFGR |= RCC_CFGR_PPRE1_DIV4;
 80003f0:	4a18      	ldr	r2, [pc, #96]	; (8000454 <SetSysClock+0xe4>)
 80003f2:	4b18      	ldr	r3, [pc, #96]	; (8000454 <SetSysClock+0xe4>)
 80003f4:	689b      	ldr	r3, [r3, #8]
 80003f6:	f443 53a0 	orr.w	r3, r3, #5120	; 0x1400
 80003fa:	6093      	str	r3, [r2, #8]

    /* Configure the main PLL */
    RCC->PLLCFGR = PLL_M | (PLL_N << 6) | (((PLL_P >> 1) -1) << 16) |
 80003fc:	4b15      	ldr	r3, [pc, #84]	; (8000454 <SetSysClock+0xe4>)
 80003fe:	4a17      	ldr	r2, [pc, #92]	; (800045c <SetSysClock+0xec>)
 8000400:	605a      	str	r2, [r3, #4]
                   (RCC_PLLCFGR_PLLSRC_HSE) | (PLL_Q << 24);

    /* Enable the main PLL */
    RCC->CR |= RCC_CR_PLLON;
 8000402:	4a14      	ldr	r2, [pc, #80]	; (8000454 <SetSysClock+0xe4>)
 8000404:	4b13      	ldr	r3, [pc, #76]	; (8000454 <SetSysClock+0xe4>)
 8000406:	681b      	ldr	r3, [r3, #0]
 8000408:	f043 7380 	orr.w	r3, r3, #16777216	; 0x1000000
 800040c:	6013      	str	r3, [r2, #0]

    /* Wait till the main PLL is ready */
    while((RCC->CR & RCC_CR_PLLRDY) == 0)
 800040e:	bf00      	nop
 8000410:	4b10      	ldr	r3, [pc, #64]	; (8000454 <SetSysClock+0xe4>)
 8000412:	681b      	ldr	r3, [r3, #0]
 8000414:	f003 7300 	and.w	r3, r3, #33554432	; 0x2000000
 8000418:	2b00      	cmp	r3, #0
 800041a:	d0f9      	beq.n	8000410 <SetSysClock+0xa0>
    {
    }
   
    /* Configure Flash prefetch, Instruction cache, Data cache and wait state */
    FLASH->ACR = FLASH_ACR_PRFTEN |FLASH_ACR_ICEN |FLASH_ACR_DCEN |FLASH_ACR_LATENCY_5WS;
 800041c:	4b10      	ldr	r3, [pc, #64]	; (8000460 <SetSysClock+0xf0>)
 800041e:	f240 7205 	movw	r2, #1797	; 0x705
 8000422:	601a      	str	r2, [r3, #0]

    /* Select the main PLL as system clock source */
    RCC->CFGR &= (uint32_t)((uint32_t)~(RCC_CFGR_SW));
 8000424:	4a0b      	ldr	r2, [pc, #44]	; (8000454 <SetSysClock+0xe4>)
 8000426:	4b0b      	ldr	r3, [pc, #44]	; (8000454 <SetSysClock+0xe4>)
 8000428:	689b      	ldr	r3, [r3, #8]
 800042a:	f023 0303 	bic.w	r3, r3, #3
 800042e:	6093      	str	r3, [r2, #8]
    RCC->CFGR |= RCC_CFGR_SW_PLL;
 8000430:	4a08      	ldr	r2, [pc, #32]	; (8000454 <SetSysClock+0xe4>)
 8000432:	4b08      	ldr	r3, [pc, #32]	; (8000454 <SetSysClock+0xe4>)
 8000434:	689b      	ldr	r3, [r3, #8]
 8000436:	f043 0302 	orr.w	r3, r3, #2
 800043a:	6093      	str	r3, [r2, #8]

    /* Wait till the main PLL is used as system clock source */
    while ((RCC->CFGR & (uint32_t)RCC_CFGR_SWS ) != RCC_CFGR_SWS_PLL);
 800043c:	bf00      	nop
 800043e:	4b05      	ldr	r3, [pc, #20]	; (8000454 <SetSysClock+0xe4>)
 8000440:	689b      	ldr	r3, [r3, #8]
 8000442:	f003 030c 	and.w	r3, r3, #12
 8000446:	2b08      	cmp	r3, #8
 8000448:	d1f9      	bne.n	800043e <SetSysClock+0xce>
  else
  { /* If HSE fails to start-up, the application will have wrong clock
         configuration. User can add here some code to deal with this error */
  }

}
 800044a:	bf00      	nop
 800044c:	370c      	adds	r7, #12
 800044e:	46bd      	mov	sp, r7
 8000450:	bc80      	pop	{r7}
 8000452:	4770      	bx	lr
 8000454:	40023800 	.word	0x40023800
 8000458:	40007000 	.word	0x40007000
 800045c:	07405419 	.word	0x07405419
 8000460:	40023c00 	.word	0x40023c00

08000464 <__libc_init_array>:
 8000464:	b570      	push	{r4, r5, r6, lr}
 8000466:	4e0d      	ldr	r6, [pc, #52]	; (800049c <__libc_init_array+0x38>)
 8000468:	4c0d      	ldr	r4, [pc, #52]	; (80004a0 <__libc_init_array+0x3c>)
 800046a:	1ba4      	subs	r4, r4, r6
 800046c:	10a4      	asrs	r4, r4, #2
 800046e:	2500      	movs	r5, #0
 8000470:	42a5      	cmp	r5, r4
 8000472:	d109      	bne.n	8000488 <__libc_init_array+0x24>
 8000474:	4e0b      	ldr	r6, [pc, #44]	; (80004a4 <__libc_init_array+0x40>)
 8000476:	4c0c      	ldr	r4, [pc, #48]	; (80004a8 <__libc_init_array+0x44>)
 8000478:	f000 f818 	bl	80004ac <_init>
 800047c:	1ba4      	subs	r4, r4, r6
 800047e:	10a4      	asrs	r4, r4, #2
 8000480:	2500      	movs	r5, #0
 8000482:	42a5      	cmp	r5, r4
 8000484:	d105      	bne.n	8000492 <__libc_init_array+0x2e>
 8000486:	bd70      	pop	{r4, r5, r6, pc}
 8000488:	f856 3025 	ldr.w	r3, [r6, r5, lsl #2]
 800048c:	4798      	blx	r3
 800048e:	3501      	adds	r5, #1
 8000490:	e7ee      	b.n	8000470 <__libc_init_array+0xc>
 8000492:	f856 3025 	ldr.w	r3, [r6, r5, lsl #2]
 8000496:	4798      	blx	r3
 8000498:	3501      	adds	r5, #1
 800049a:	e7f2      	b.n	8000482 <__libc_init_array+0x1e>
 800049c:	080004c4 	.word	0x080004c4
 80004a0:	080004c4 	.word	0x080004c4
 80004a4:	080004c4 	.word	0x080004c4
 80004a8:	080004c8 	.word	0x080004c8

080004ac <_init>:
 80004ac:	b5f8      	push	{r3, r4, r5, r6, r7, lr}
 80004ae:	bf00      	nop
 80004b0:	bcf8      	pop	{r3, r4, r5, r6, r7}
 80004b2:	bc08      	pop	{r3}
 80004b4:	469e      	mov	lr, r3
 80004b6:	4770      	bx	lr

080004b8 <_fini>:
 80004b8:	b5f8      	push	{r3, r4, r5, r6, r7, lr}
 80004ba:	bf00      	nop
 80004bc:	bcf8      	pop	{r3, r4, r5, r6, r7}
 80004be:	bc08      	pop	{r3}
 80004c0:	469e      	mov	lr, r3
 80004c2:	4770      	bx	lr
