
Doga_Interrupt(USERB1-LED2).elf:     file format elf32-littlearm

Sections:
Idx Name          Size      VMA       LMA       File off  Algn
  0 .isr_vector   00000188  08000000  08000000  00010000  2**0
                  CONTENTS, ALLOC, LOAD, READONLY, DATA
  1 .text         00000380  08000188  08000188  00010188  2**2
                  CONTENTS, ALLOC, LOAD, READONLY, CODE
  2 .rodata       00000000  08000508  08000510  00010510  2**0
                  CONTENTS, ALLOC, LOAD, DATA
  3 .init_array   00000004  08000508  08000508  00010508  2**2
                  CONTENTS, ALLOC, LOAD, DATA
  4 .fini_array   00000004  0800050c  0800050c  0001050c  2**2
                  CONTENTS, ALLOC, LOAD, DATA
  5 .data         00000000  20000000  20000000  00010510  2**0
                  CONTENTS, ALLOC, LOAD, DATA
  6 .ccmram       00000000  10000000  10000000  00010510  2**0
                  CONTENTS
  7 .bss          0000001c  20000000  20000000  00020000  2**2
                  ALLOC
  8 ._user_heap_stack 00000400  2000001c  2000001c  00020000  2**0
                  ALLOC
  9 .ARM.attributes 0000002a  00000000  00000000  00010510  2**0
                  CONTENTS, READONLY
 10 .debug_info   00000fc2  00000000  00000000  0001053a  2**0
                  CONTENTS, READONLY, DEBUGGING
 11 .debug_abbrev 0000035c  00000000  00000000  000114fc  2**0
                  CONTENTS, READONLY, DEBUGGING
 12 .debug_aranges 000000e8  00000000  00000000  00011858  2**3
                  CONTENTS, READONLY, DEBUGGING
 13 .debug_ranges 000000b0  00000000  00000000  00011940  2**3
                  CONTENTS, READONLY, DEBUGGING
 14 .debug_line   000006ac  00000000  00000000  000119f0  2**0
                  CONTENTS, READONLY, DEBUGGING
 15 .debug_str    00000a57  00000000  00000000  0001209c  2**0
                  CONTENTS, READONLY, DEBUGGING
 16 .comment      0000007c  00000000  00000000  00012af3  2**0
                  CONTENTS, READONLY
 17 .debug_frame  0000022c  00000000  00000000  00012b70  2**2
                  CONTENTS, READONLY, DEBUGGING
 18 .stabstr      0000003f  00000000  00000000  00012d9c  2**0
                  CONTENTS, READONLY, DEBUGGING

Disassembly of section .text:

08000188 <__do_global_dtors_aux>:
 8000188:	b510      	push	{r4, lr}
 800018a:	4c05      	ldr	r4, [pc, #20]	; (80001a0 <__do_global_dtors_aux+0x18>)
 800018c:	7823      	ldrb	r3, [r4, #0]
 800018e:	b933      	cbnz	r3, 800019e <__do_global_dtors_aux+0x16>
 8000190:	4b04      	ldr	r3, [pc, #16]	; (80001a4 <__do_global_dtors_aux+0x1c>)
 8000192:	b113      	cbz	r3, 800019a <__do_global_dtors_aux+0x12>
 8000194:	4804      	ldr	r0, [pc, #16]	; (80001a8 <__do_global_dtors_aux+0x20>)
 8000196:	f3af 8000 	nop.w
 800019a:	2301      	movs	r3, #1
 800019c:	7023      	strb	r3, [r4, #0]
 800019e:	bd10      	pop	{r4, pc}
 80001a0:	20000000 	.word	0x20000000
 80001a4:	00000000 	.word	0x00000000
 80001a8:	080004f0 	.word	0x080004f0

080001ac <frame_dummy>:
 80001ac:	b508      	push	{r3, lr}
 80001ae:	4b03      	ldr	r3, [pc, #12]	; (80001bc <frame_dummy+0x10>)
 80001b0:	b11b      	cbz	r3, 80001ba <frame_dummy+0xe>
 80001b2:	4903      	ldr	r1, [pc, #12]	; (80001c0 <frame_dummy+0x14>)
 80001b4:	4803      	ldr	r0, [pc, #12]	; (80001c4 <frame_dummy+0x18>)
 80001b6:	f3af 8000 	nop.w
 80001ba:	bd08      	pop	{r3, pc}
 80001bc:	00000000 	.word	0x00000000
 80001c0:	20000004 	.word	0x20000004
 80001c4:	080004f0 	.word	0x080004f0

080001c8 <NVIC_EnableIRQ>:
    The function enables a device-specific interrupt in the NVIC interrupt controller.

    \param [in]      IRQn  External interrupt number. Value cannot be negative.
 */
__STATIC_INLINE void NVIC_EnableIRQ(IRQn_Type IRQn)
{
 80001c8:	b480      	push	{r7}
 80001ca:	b083      	sub	sp, #12
 80001cc:	af00      	add	r7, sp, #0
 80001ce:	4603      	mov	r3, r0
 80001d0:	71fb      	strb	r3, [r7, #7]
/*  NVIC->ISER[((uint32_t)(IRQn) >> 5)] = (1 << ((uint32_t)(IRQn) & 0x1F));  enable interrupt */
  NVIC->ISER[(uint32_t)((int32_t)IRQn) >> 5] = (uint32_t)(1 << ((uint32_t)((int32_t)IRQn) & (uint32_t)0x1F)); /* enable interrupt */
 80001d2:	4908      	ldr	r1, [pc, #32]	; (80001f4 <NVIC_EnableIRQ+0x2c>)
 80001d4:	f997 3007 	ldrsb.w	r3, [r7, #7]
 80001d8:	095b      	lsrs	r3, r3, #5
 80001da:	79fa      	ldrb	r2, [r7, #7]
 80001dc:	f002 021f 	and.w	r2, r2, #31
 80001e0:	2001      	movs	r0, #1
 80001e2:	fa00 f202 	lsl.w	r2, r0, r2
 80001e6:	f841 2023 	str.w	r2, [r1, r3, lsl #2]
}
 80001ea:	bf00      	nop
 80001ec:	370c      	adds	r7, #12
 80001ee:	46bd      	mov	sp, r7
 80001f0:	bc80      	pop	{r7}
 80001f2:	4770      	bx	lr
 80001f4:	e000e100 	.word	0xe000e100

080001f8 <main>:
#include "stm32f4xx.h"

void delayMs();

int main(void)
{
 80001f8:	b580      	push	{r7, lr}
 80001fa:	af00      	add	r7, sp, #0
  This function disables IRQ interrupts by setting the I-bit in the CPSR.
  Can only be executed in Privileged modes.
 */
__attribute__( ( always_inline ) ) __STATIC_INLINE void __disable_irq(void)
{
  __ASM volatile ("cpsid i");
 80001fc:	b672      	cpsid	i
	__disable_irq();

	RCC->AHB1ENR |= 5;
 80001fe:	4a1d      	ldr	r2, [pc, #116]	; (8000274 <main+0x7c>)
 8000200:	4b1c      	ldr	r3, [pc, #112]	; (8000274 <main+0x7c>)
 8000202:	6b1b      	ldr	r3, [r3, #48]	; 0x30
 8000204:	f043 0305 	orr.w	r3, r3, #5
 8000208:	6313      	str	r3, [r2, #48]	; 0x30
	RCC->APB2ENR |= 0x4000;
 800020a:	4a1a      	ldr	r2, [pc, #104]	; (8000274 <main+0x7c>)
 800020c:	4b19      	ldr	r3, [pc, #100]	; (8000274 <main+0x7c>)
 800020e:	6c5b      	ldr	r3, [r3, #68]	; 0x44
 8000210:	f443 4380 	orr.w	r3, r3, #16384	; 0x4000
 8000214:	6453      	str	r3, [r2, #68]	; 0x44

	GPIOC->MODER &= ~ 0x0C000000;
 8000216:	4a18      	ldr	r2, [pc, #96]	; (8000278 <main+0x80>)
 8000218:	4b17      	ldr	r3, [pc, #92]	; (8000278 <main+0x80>)
 800021a:	681b      	ldr	r3, [r3, #0]
 800021c:	f023 6340 	bic.w	r3, r3, #201326592	; 0xc000000
 8000220:	6013      	str	r3, [r2, #0]

	GPIOA->MODER &= ~ 0x00000C00 ;
 8000222:	4a16      	ldr	r2, [pc, #88]	; (800027c <main+0x84>)
 8000224:	4b15      	ldr	r3, [pc, #84]	; (800027c <main+0x84>)
 8000226:	681b      	ldr	r3, [r3, #0]
 8000228:	f423 6340 	bic.w	r3, r3, #3072	; 0xc00
 800022c:	6013      	str	r3, [r2, #0]
	GPIOA->MODER |= 1<<(2*5) ;
 800022e:	4a13      	ldr	r2, [pc, #76]	; (800027c <main+0x84>)
 8000230:	4b12      	ldr	r3, [pc, #72]	; (800027c <main+0x84>)
 8000232:	681b      	ldr	r3, [r3, #0]
 8000234:	f443 6380 	orr.w	r3, r3, #1024	; 0x400
 8000238:	6013      	str	r3, [r2, #0]

	SYSCFG->EXTICR[3] &= ~ 0x00F0 ;
 800023a:	4a11      	ldr	r2, [pc, #68]	; (8000280 <main+0x88>)
 800023c:	4b10      	ldr	r3, [pc, #64]	; (8000280 <main+0x88>)
 800023e:	695b      	ldr	r3, [r3, #20]
 8000240:	f023 03f0 	bic.w	r3, r3, #240	; 0xf0
 8000244:	6153      	str	r3, [r2, #20]
	SYSCFG->EXTICR[3] |= 1<<5 ;
 8000246:	4a0e      	ldr	r2, [pc, #56]	; (8000280 <main+0x88>)
 8000248:	4b0d      	ldr	r3, [pc, #52]	; (8000280 <main+0x88>)
 800024a:	695b      	ldr	r3, [r3, #20]
 800024c:	f043 0320 	orr.w	r3, r3, #32
 8000250:	6153      	str	r3, [r2, #20]

	EXTI->IMR |= 0x2000;
 8000252:	4a0c      	ldr	r2, [pc, #48]	; (8000284 <main+0x8c>)
 8000254:	4b0b      	ldr	r3, [pc, #44]	; (8000284 <main+0x8c>)
 8000256:	681b      	ldr	r3, [r3, #0]
 8000258:	f443 5300 	orr.w	r3, r3, #8192	; 0x2000
 800025c:	6013      	str	r3, [r2, #0]
	EXTI->FTSR |= 0x2000;
 800025e:	4a09      	ldr	r2, [pc, #36]	; (8000284 <main+0x8c>)
 8000260:	4b08      	ldr	r3, [pc, #32]	; (8000284 <main+0x8c>)
 8000262:	68db      	ldr	r3, [r3, #12]
 8000264:	f443 5300 	orr.w	r3, r3, #8192	; 0x2000
 8000268:	60d3      	str	r3, [r2, #12]

	NVIC_EnableIRQ(EXTI15_10_IRQn);
 800026a:	2028      	movs	r0, #40	; 0x28
 800026c:	f7ff ffac 	bl	80001c8 <NVIC_EnableIRQ>
  __ASM volatile ("cpsie i");
 8000270:	b662      	cpsie	i

	__enable_irq();



  while (1)
 8000272:	e7fe      	b.n	8000272 <main+0x7a>
 8000274:	40023800 	.word	0x40023800
 8000278:	40020800 	.word	0x40020800
 800027c:	40020000 	.word	0x40020000
 8000280:	40013800 	.word	0x40013800
 8000284:	40013c00 	.word	0x40013c00

08000288 <EXTI15_10_IRQHandler>:
  {

  }
}
void EXTI15_10_IRQHandler(void)
{
 8000288:	b480      	push	{r7}
 800028a:	af00      	add	r7, sp, #0
	GPIOA->ODR ^= 1<<5;
 800028c:	4a06      	ldr	r2, [pc, #24]	; (80002a8 <EXTI15_10_IRQHandler+0x20>)
 800028e:	4b06      	ldr	r3, [pc, #24]	; (80002a8 <EXTI15_10_IRQHandler+0x20>)
 8000290:	695b      	ldr	r3, [r3, #20]
 8000292:	f083 0320 	eor.w	r3, r3, #32
 8000296:	6153      	str	r3, [r2, #20]
    EXTI->PR = 0x2000 ;
 8000298:	4b04      	ldr	r3, [pc, #16]	; (80002ac <EXTI15_10_IRQHandler+0x24>)
 800029a:	f44f 5200 	mov.w	r2, #8192	; 0x2000
 800029e:	615a      	str	r2, [r3, #20]
}
 80002a0:	bf00      	nop
 80002a2:	46bd      	mov	sp, r7
 80002a4:	bc80      	pop	{r7}
 80002a6:	4770      	bx	lr
 80002a8:	40020000 	.word	0x40020000
 80002ac:	40013c00 	.word	0x40013c00

080002b0 <Reset_Handler>:

    .section  .text.Reset_Handler
  .weak  Reset_Handler
  .type  Reset_Handler, %function
Reset_Handler:  
  ldr   sp, =_estack    /* Atollic update: set stack pointer */
 80002b0:	f8df d034 	ldr.w	sp, [pc, #52]	; 80002e8 <LoopFillZerobss+0x14>

/* Copy the data segment initializers from flash to SRAM */  
  movs  r1, #0
 80002b4:	2100      	movs	r1, #0
  b  LoopCopyDataInit
 80002b6:	e003      	b.n	80002c0 <LoopCopyDataInit>

080002b8 <CopyDataInit>:

CopyDataInit:
  ldr  r3, =_sidata
 80002b8:	4b0c      	ldr	r3, [pc, #48]	; (80002ec <LoopFillZerobss+0x18>)
  ldr  r3, [r3, r1]
 80002ba:	585b      	ldr	r3, [r3, r1]
  str  r3, [r0, r1]
 80002bc:	5043      	str	r3, [r0, r1]
  adds  r1, r1, #4
 80002be:	3104      	adds	r1, #4

080002c0 <LoopCopyDataInit>:
    
LoopCopyDataInit:
  ldr  r0, =_sdata
 80002c0:	480b      	ldr	r0, [pc, #44]	; (80002f0 <LoopFillZerobss+0x1c>)
  ldr  r3, =_edata
 80002c2:	4b0c      	ldr	r3, [pc, #48]	; (80002f4 <LoopFillZerobss+0x20>)
  adds  r2, r0, r1
 80002c4:	1842      	adds	r2, r0, r1
  cmp  r2, r3
 80002c6:	429a      	cmp	r2, r3
  bcc  CopyDataInit
 80002c8:	d3f6      	bcc.n	80002b8 <CopyDataInit>
  ldr  r2, =_sbss
 80002ca:	4a0b      	ldr	r2, [pc, #44]	; (80002f8 <LoopFillZerobss+0x24>)
  b  LoopFillZerobss
 80002cc:	e002      	b.n	80002d4 <LoopFillZerobss>

080002ce <FillZerobss>:
/* Zero fill the bss segment. */  
FillZerobss:
  movs  r3, #0
 80002ce:	2300      	movs	r3, #0
  str  r3, [r2], #4
 80002d0:	f842 3b04 	str.w	r3, [r2], #4

080002d4 <LoopFillZerobss>:
    
LoopFillZerobss:
  ldr  r3, = _ebss
 80002d4:	4b09      	ldr	r3, [pc, #36]	; (80002fc <LoopFillZerobss+0x28>)
  cmp  r2, r3
 80002d6:	429a      	cmp	r2, r3
  bcc  FillZerobss
 80002d8:	d3f9      	bcc.n	80002ce <FillZerobss>

/* Call the clock system intitialization function.*/
  bl  SystemInit   
 80002da:	f000 f83d 	bl	8000358 <SystemInit>
/* Call static constructors */
    bl __libc_init_array
 80002de:	f000 f8e3 	bl	80004a8 <__libc_init_array>
/* Call the application's entry point.*/
  bl  main
 80002e2:	f7ff ff89 	bl	80001f8 <main>
  bx  lr    
 80002e6:	4770      	bx	lr
  ldr   sp, =_estack    /* Atollic update: set stack pointer */
 80002e8:	20018000 	.word	0x20018000
  ldr  r3, =_sidata
 80002ec:	08000510 	.word	0x08000510
  ldr  r0, =_sdata
 80002f0:	20000000 	.word	0x20000000
  ldr  r3, =_edata
 80002f4:	20000000 	.word	0x20000000
  ldr  r2, =_sbss
 80002f8:	20000000 	.word	0x20000000
  ldr  r3, = _ebss
 80002fc:	2000001c 	.word	0x2000001c

08000300 <ADC_IRQHandler>:
 * @retval None       
*/
    .section  .text.Default_Handler,"ax",%progbits
Default_Handler:
Infinite_Loop:
  b  Infinite_Loop
 8000300:	e7fe      	b.n	8000300 <ADC_IRQHandler>

08000302 <NMI_Handler>:
  * @brief   This function handles NMI exception.
  * @param  None
  * @retval None
  */
void NMI_Handler(void)
{
 8000302:	b480      	push	{r7}
 8000304:	af00      	add	r7, sp, #0
}
 8000306:	bf00      	nop
 8000308:	46bd      	mov	sp, r7
 800030a:	bc80      	pop	{r7}
 800030c:	4770      	bx	lr

0800030e <HardFault_Handler>:
  * @brief  This function handles Hard Fault exception.
  * @param  None
  * @retval None
  */
void HardFault_Handler(void)
{
 800030e:	b480      	push	{r7}
 8000310:	af00      	add	r7, sp, #0
  /* Go to infinite loop when Hard Fault exception occurs */
  while (1)
 8000312:	e7fe      	b.n	8000312 <HardFault_Handler+0x4>

08000314 <MemManage_Handler>:
  * @brief  This function handles Memory Manage exception.
  * @param  None
  * @retval None
  */
void MemManage_Handler(void)
{
 8000314:	b480      	push	{r7}
 8000316:	af00      	add	r7, sp, #0
  /* Go to infinite loop when Memory Manage exception occurs */
  while (1)
 8000318:	e7fe      	b.n	8000318 <MemManage_Handler+0x4>

0800031a <BusFault_Handler>:
  * @brief  This function handles Bus Fault exception.
  * @param  None
  * @retval None
  */
void BusFault_Handler(void)
{
 800031a:	b480      	push	{r7}
 800031c:	af00      	add	r7, sp, #0
  /* Go to infinite loop when Bus Fault exception occurs */
  while (1)
 800031e:	e7fe      	b.n	800031e <BusFault_Handler+0x4>

08000320 <UsageFault_Handler>:
  * @brief  This function handles Usage Fault exception.
  * @param  None
  * @retval None
  */
void UsageFault_Handler(void)
{
 8000320:	b480      	push	{r7}
 8000322:	af00      	add	r7, sp, #0
  /* Go to infinite loop when Usage Fault exception occurs */
  while (1)
 8000324:	e7fe      	b.n	8000324 <UsageFault_Handler+0x4>

08000326 <SVC_Handler>:
  * @brief  This function handles SVCall exception.
  * @param  None
  * @retval None
  */
void SVC_Handler(void)
{
 8000326:	b480      	push	{r7}
 8000328:	af00      	add	r7, sp, #0
}
 800032a:	bf00      	nop
 800032c:	46bd      	mov	sp, r7
 800032e:	bc80      	pop	{r7}
 8000330:	4770      	bx	lr

08000332 <DebugMon_Handler>:
  * @brief  This function handles Debug Monitor exception.
  * @param  None
  * @retval None
  */
void DebugMon_Handler(void)
{
 8000332:	b480      	push	{r7}
 8000334:	af00      	add	r7, sp, #0
}
 8000336:	bf00      	nop
 8000338:	46bd      	mov	sp, r7
 800033a:	bc80      	pop	{r7}
 800033c:	4770      	bx	lr

0800033e <PendSV_Handler>:
  * @brief  This function handles PendSVC exception.
  * @param  None
  * @retval None
  */
void PendSV_Handler(void)
{
 800033e:	b480      	push	{r7}
 8000340:	af00      	add	r7, sp, #0
}
 8000342:	bf00      	nop
 8000344:	46bd      	mov	sp, r7
 8000346:	bc80      	pop	{r7}
 8000348:	4770      	bx	lr

0800034a <SysTick_Handler>:
  * @brief  This function handles SysTick Handler.
  * @param  None
  * @retval None
  */
void SysTick_Handler(void)
{
 800034a:	b480      	push	{r7}
 800034c:	af00      	add	r7, sp, #0
/*  TimingDelay_Decrement(); */
}
 800034e:	bf00      	nop
 8000350:	46bd      	mov	sp, r7
 8000352:	bc80      	pop	{r7}
 8000354:	4770      	bx	lr
	...

08000358 <SystemInit>:
  *         SystemFrequency variable.
  * @param  None
  * @retval None
  */
void SystemInit(void)
{
 8000358:	b580      	push	{r7, lr}
 800035a:	af00      	add	r7, sp, #0
  #if (__FPU_PRESENT == 1) && (__FPU_USED == 1)
    SCB->CPACR |= ((3UL << 10*2)|(3UL << 11*2));  /* set CP10 and CP11 Full Access */
  #endif
  /* Reset the RCC clock configuration to the default reset state ------------*/
  /* Set HSION bit */
  RCC->CR |= (uint32_t)0x00000001;
 800035c:	4a12      	ldr	r2, [pc, #72]	; (80003a8 <SystemInit+0x50>)
 800035e:	4b12      	ldr	r3, [pc, #72]	; (80003a8 <SystemInit+0x50>)
 8000360:	681b      	ldr	r3, [r3, #0]
 8000362:	f043 0301 	orr.w	r3, r3, #1
 8000366:	6013      	str	r3, [r2, #0]

  /* Reset CFGR register */
  RCC->CFGR = 0x00000000;
 8000368:	4b0f      	ldr	r3, [pc, #60]	; (80003a8 <SystemInit+0x50>)
 800036a:	2200      	movs	r2, #0
 800036c:	609a      	str	r2, [r3, #8]

  /* Reset HSEON, CSSON and PLLON bits */
  RCC->CR &= (uint32_t)0xFEF6FFFF;
 800036e:	4a0e      	ldr	r2, [pc, #56]	; (80003a8 <SystemInit+0x50>)
 8000370:	4b0d      	ldr	r3, [pc, #52]	; (80003a8 <SystemInit+0x50>)
 8000372:	681b      	ldr	r3, [r3, #0]
 8000374:	f023 7384 	bic.w	r3, r3, #17301504	; 0x1080000
 8000378:	f423 3380 	bic.w	r3, r3, #65536	; 0x10000
 800037c:	6013      	str	r3, [r2, #0]

  /* Reset PLLCFGR register */
  RCC->PLLCFGR = 0x24003010;
 800037e:	4b0a      	ldr	r3, [pc, #40]	; (80003a8 <SystemInit+0x50>)
 8000380:	4a0a      	ldr	r2, [pc, #40]	; (80003ac <SystemInit+0x54>)
 8000382:	605a      	str	r2, [r3, #4]

  /* Reset HSEBYP bit */
  RCC->CR &= (uint32_t)0xFFFBFFFF;
 8000384:	4a08      	ldr	r2, [pc, #32]	; (80003a8 <SystemInit+0x50>)
 8000386:	4b08      	ldr	r3, [pc, #32]	; (80003a8 <SystemInit+0x50>)
 8000388:	681b      	ldr	r3, [r3, #0]
 800038a:	f423 2380 	bic.w	r3, r3, #262144	; 0x40000
 800038e:	6013      	str	r3, [r2, #0]

  /* Disable all interrupts */
  RCC->CIR = 0x00000000;
 8000390:	4b05      	ldr	r3, [pc, #20]	; (80003a8 <SystemInit+0x50>)
 8000392:	2200      	movs	r2, #0
 8000394:	60da      	str	r2, [r3, #12]
  SystemInit_ExtMemCtl(); 
#endif /* DATA_IN_ExtSRAM */
         
  /* Configure the System clock source, PLL Multiplier and Divider factors, 
     AHB/APBx prescalers and Flash settings ----------------------------------*/
  SetSysClock();
 8000396:	f000 f80d 	bl	80003b4 <SetSysClock>

  /* Configure the Vector Table location add offset address ------------------*/
#ifdef VECT_TAB_SRAM
  SCB->VTOR = SRAM_BASE | VECT_TAB_OFFSET; /* Vector Table Relocation in Internal SRAM */
#else
  SCB->VTOR = FLASH_BASE | VECT_TAB_OFFSET; /* Vector Table Relocation in Internal FLASH */
 800039a:	4b05      	ldr	r3, [pc, #20]	; (80003b0 <SystemInit+0x58>)
 800039c:	f04f 6200 	mov.w	r2, #134217728	; 0x8000000
 80003a0:	609a      	str	r2, [r3, #8]
#endif
}
 80003a2:	bf00      	nop
 80003a4:	bd80      	pop	{r7, pc}
 80003a6:	bf00      	nop
 80003a8:	40023800 	.word	0x40023800
 80003ac:	24003010 	.word	0x24003010
 80003b0:	e000ed00 	.word	0xe000ed00

080003b4 <SetSysClock>:
  *         is reset to the default reset state (done in SystemInit() function).   
  * @param  None
  * @retval None
  */
static void SetSysClock(void)
{
 80003b4:	b480      	push	{r7}
 80003b6:	b083      	sub	sp, #12
 80003b8:	af00      	add	r7, sp, #0
/******************************************************************************/
/*            PLL (clocked by HSE) used as System clock source                */
/******************************************************************************/
  __IO uint32_t StartUpCounter = 0, HSEStatus = 0;
 80003ba:	2300      	movs	r3, #0
 80003bc:	607b      	str	r3, [r7, #4]
 80003be:	2300      	movs	r3, #0
 80003c0:	603b      	str	r3, [r7, #0]
  
  /* Enable HSE */
  RCC->CR |= ((uint32_t)RCC_CR_HSEON);
 80003c2:	4a35      	ldr	r2, [pc, #212]	; (8000498 <SetSysClock+0xe4>)
 80003c4:	4b34      	ldr	r3, [pc, #208]	; (8000498 <SetSysClock+0xe4>)
 80003c6:	681b      	ldr	r3, [r3, #0]
 80003c8:	f443 3380 	orr.w	r3, r3, #65536	; 0x10000
 80003cc:	6013      	str	r3, [r2, #0]
 
  /* Wait till HSE is ready and if Time out is reached exit */
  do
  {
    HSEStatus = RCC->CR & RCC_CR_HSERDY;
 80003ce:	4b32      	ldr	r3, [pc, #200]	; (8000498 <SetSysClock+0xe4>)
 80003d0:	681b      	ldr	r3, [r3, #0]
 80003d2:	f403 3300 	and.w	r3, r3, #131072	; 0x20000
 80003d6:	603b      	str	r3, [r7, #0]
    StartUpCounter++;
 80003d8:	687b      	ldr	r3, [r7, #4]
 80003da:	3301      	adds	r3, #1
 80003dc:	607b      	str	r3, [r7, #4]
  } while((HSEStatus == 0) && (StartUpCounter != HSE_STARTUP_TIMEOUT));
 80003de:	683b      	ldr	r3, [r7, #0]
 80003e0:	2b00      	cmp	r3, #0
 80003e2:	d103      	bne.n	80003ec <SetSysClock+0x38>
 80003e4:	687b      	ldr	r3, [r7, #4]
 80003e6:	f5b3 6fa0 	cmp.w	r3, #1280	; 0x500
 80003ea:	d1f0      	bne.n	80003ce <SetSysClock+0x1a>

  if ((RCC->CR & RCC_CR_HSERDY) != RESET)
 80003ec:	4b2a      	ldr	r3, [pc, #168]	; (8000498 <SetSysClock+0xe4>)
 80003ee:	681b      	ldr	r3, [r3, #0]
 80003f0:	f403 3300 	and.w	r3, r3, #131072	; 0x20000
 80003f4:	2b00      	cmp	r3, #0
 80003f6:	d002      	beq.n	80003fe <SetSysClock+0x4a>
  {
    HSEStatus = (uint32_t)0x01;
 80003f8:	2301      	movs	r3, #1
 80003fa:	603b      	str	r3, [r7, #0]
 80003fc:	e001      	b.n	8000402 <SetSysClock+0x4e>
  }
  else
  {
    HSEStatus = (uint32_t)0x00;
 80003fe:	2300      	movs	r3, #0
 8000400:	603b      	str	r3, [r7, #0]
  }

  if (HSEStatus == (uint32_t)0x01)
 8000402:	683b      	ldr	r3, [r7, #0]
 8000404:	2b01      	cmp	r3, #1
 8000406:	d142      	bne.n	800048e <SetSysClock+0xda>
  {
    /* Select regulator voltage output Scale 1 mode, System frequency up to 168 MHz */
    RCC->APB1ENR |= RCC_APB1ENR_PWREN;
 8000408:	4a23      	ldr	r2, [pc, #140]	; (8000498 <SetSysClock+0xe4>)
 800040a:	4b23      	ldr	r3, [pc, #140]	; (8000498 <SetSysClock+0xe4>)
 800040c:	6c1b      	ldr	r3, [r3, #64]	; 0x40
 800040e:	f043 5380 	orr.w	r3, r3, #268435456	; 0x10000000
 8000412:	6413      	str	r3, [r2, #64]	; 0x40
    PWR->CR |= PWR_CR_VOS;
 8000414:	4a21      	ldr	r2, [pc, #132]	; (800049c <SetSysClock+0xe8>)
 8000416:	4b21      	ldr	r3, [pc, #132]	; (800049c <SetSysClock+0xe8>)
 8000418:	681b      	ldr	r3, [r3, #0]
 800041a:	f443 4340 	orr.w	r3, r3, #49152	; 0xc000
 800041e:	6013      	str	r3, [r2, #0]

    /* HCLK = SYSCLK / 1*/
    RCC->CFGR |= RCC_CFGR_HPRE_DIV1;
 8000420:	4a1d      	ldr	r2, [pc, #116]	; (8000498 <SetSysClock+0xe4>)
 8000422:	4b1d      	ldr	r3, [pc, #116]	; (8000498 <SetSysClock+0xe4>)
 8000424:	689b      	ldr	r3, [r3, #8]
 8000426:	6093      	str	r3, [r2, #8]
      
    /* PCLK2 = HCLK / 2*/
    RCC->CFGR |= RCC_CFGR_PPRE2_DIV2;
 8000428:	4a1b      	ldr	r2, [pc, #108]	; (8000498 <SetSysClock+0xe4>)
 800042a:	4b1b      	ldr	r3, [pc, #108]	; (8000498 <SetSysClock+0xe4>)
 800042c:	689b      	ldr	r3, [r3, #8]
 800042e:	f443 4300 	orr.w	r3, r3, #32768	; 0x8000
 8000432:	6093      	str	r3, [r2, #8]
    
    /* PCLK1 = HCLK / 4*/
    RCC->CFGR |= RCC_CFGR_PPRE1_DIV4;
 8000434:	4a18      	ldr	r2, [pc, #96]	; (8000498 <SetSysClock+0xe4>)
 8000436:	4b18      	ldr	r3, [pc, #96]	; (8000498 <SetSysClock+0xe4>)
 8000438:	689b      	ldr	r3, [r3, #8]
 800043a:	f443 53a0 	orr.w	r3, r3, #5120	; 0x1400
 800043e:	6093      	str	r3, [r2, #8]

    /* Configure the main PLL */
    RCC->PLLCFGR = PLL_M | (PLL_N << 6) | (((PLL_P >> 1) -1) << 16) |
 8000440:	4b15      	ldr	r3, [pc, #84]	; (8000498 <SetSysClock+0xe4>)
 8000442:	4a17      	ldr	r2, [pc, #92]	; (80004a0 <SetSysClock+0xec>)
 8000444:	605a      	str	r2, [r3, #4]
                   (RCC_PLLCFGR_PLLSRC_HSE) | (PLL_Q << 24);

    /* Enable the main PLL */
    RCC->CR |= RCC_CR_PLLON;
 8000446:	4a14      	ldr	r2, [pc, #80]	; (8000498 <SetSysClock+0xe4>)
 8000448:	4b13      	ldr	r3, [pc, #76]	; (8000498 <SetSysClock+0xe4>)
 800044a:	681b      	ldr	r3, [r3, #0]
 800044c:	f043 7380 	orr.w	r3, r3, #16777216	; 0x1000000
 8000450:	6013      	str	r3, [r2, #0]

    /* Wait till the main PLL is ready */
    while((RCC->CR & RCC_CR_PLLRDY) == 0)
 8000452:	bf00      	nop
 8000454:	4b10      	ldr	r3, [pc, #64]	; (8000498 <SetSysClock+0xe4>)
 8000456:	681b      	ldr	r3, [r3, #0]
 8000458:	f003 7300 	and.w	r3, r3, #33554432	; 0x2000000
 800045c:	2b00      	cmp	r3, #0
 800045e:	d0f9      	beq.n	8000454 <SetSysClock+0xa0>
    {
    }
   
    /* Configure Flash prefetch, Instruction cache, Data cache and wait state */
    FLASH->ACR = FLASH_ACR_PRFTEN |FLASH_ACR_ICEN |FLASH_ACR_DCEN |FLASH_ACR_LATENCY_5WS;
 8000460:	4b10      	ldr	r3, [pc, #64]	; (80004a4 <SetSysClock+0xf0>)
 8000462:	f240 7205 	movw	r2, #1797	; 0x705
 8000466:	601a      	str	r2, [r3, #0]

    /* Select the main PLL as system clock source */
    RCC->CFGR &= (uint32_t)((uint32_t)~(RCC_CFGR_SW));
 8000468:	4a0b      	ldr	r2, [pc, #44]	; (8000498 <SetSysClock+0xe4>)
 800046a:	4b0b      	ldr	r3, [pc, #44]	; (8000498 <SetSysClock+0xe4>)
 800046c:	689b      	ldr	r3, [r3, #8]
 800046e:	f023 0303 	bic.w	r3, r3, #3
 8000472:	6093      	str	r3, [r2, #8]
    RCC->CFGR |= RCC_CFGR_SW_PLL;
 8000474:	4a08      	ldr	r2, [pc, #32]	; (8000498 <SetSysClock+0xe4>)
 8000476:	4b08      	ldr	r3, [pc, #32]	; (8000498 <SetSysClock+0xe4>)
 8000478:	689b      	ldr	r3, [r3, #8]
 800047a:	f043 0302 	orr.w	r3, r3, #2
 800047e:	6093      	str	r3, [r2, #8]

    /* Wait till the main PLL is used as system clock source */
    while ((RCC->CFGR & (uint32_t)RCC_CFGR_SWS ) != RCC_CFGR_SWS_PLL);
 8000480:	bf00      	nop
 8000482:	4b05      	ldr	r3, [pc, #20]	; (8000498 <SetSysClock+0xe4>)
 8000484:	689b      	ldr	r3, [r3, #8]
 8000486:	f003 030c 	and.w	r3, r3, #12
 800048a:	2b08      	cmp	r3, #8
 800048c:	d1f9      	bne.n	8000482 <SetSysClock+0xce>
  else
  { /* If HSE fails to start-up, the application will have wrong clock
         configuration. User can add here some code to deal with this error */
  }

}
 800048e:	bf00      	nop
 8000490:	370c      	adds	r7, #12
 8000492:	46bd      	mov	sp, r7
 8000494:	bc80      	pop	{r7}
 8000496:	4770      	bx	lr
 8000498:	40023800 	.word	0x40023800
 800049c:	40007000 	.word	0x40007000
 80004a0:	07405419 	.word	0x07405419
 80004a4:	40023c00 	.word	0x40023c00

080004a8 <__libc_init_array>:
 80004a8:	b570      	push	{r4, r5, r6, lr}
 80004aa:	4e0d      	ldr	r6, [pc, #52]	; (80004e0 <__libc_init_array+0x38>)
 80004ac:	4c0d      	ldr	r4, [pc, #52]	; (80004e4 <__libc_init_array+0x3c>)
 80004ae:	1ba4      	subs	r4, r4, r6
 80004b0:	10a4      	asrs	r4, r4, #2
 80004b2:	2500      	movs	r5, #0
 80004b4:	42a5      	cmp	r5, r4
 80004b6:	d109      	bne.n	80004cc <__libc_init_array+0x24>
 80004b8:	4e0b      	ldr	r6, [pc, #44]	; (80004e8 <__libc_init_array+0x40>)
 80004ba:	4c0c      	ldr	r4, [pc, #48]	; (80004ec <__libc_init_array+0x44>)
 80004bc:	f000 f818 	bl	80004f0 <_init>
 80004c0:	1ba4      	subs	r4, r4, r6
 80004c2:	10a4      	asrs	r4, r4, #2
 80004c4:	2500      	movs	r5, #0
 80004c6:	42a5      	cmp	r5, r4
 80004c8:	d105      	bne.n	80004d6 <__libc_init_array+0x2e>
 80004ca:	bd70      	pop	{r4, r5, r6, pc}
 80004cc:	f856 3025 	ldr.w	r3, [r6, r5, lsl #2]
 80004d0:	4798      	blx	r3
 80004d2:	3501      	adds	r5, #1
 80004d4:	e7ee      	b.n	80004b4 <__libc_init_array+0xc>
 80004d6:	f856 3025 	ldr.w	r3, [r6, r5, lsl #2]
 80004da:	4798      	blx	r3
 80004dc:	3501      	adds	r5, #1
 80004de:	e7f2      	b.n	80004c6 <__libc_init_array+0x1e>
 80004e0:	08000508 	.word	0x08000508
 80004e4:	08000508 	.word	0x08000508
 80004e8:	08000508 	.word	0x08000508
 80004ec:	0800050c 	.word	0x0800050c

080004f0 <_init>:
 80004f0:	b5f8      	push	{r3, r4, r5, r6, r7, lr}
 80004f2:	bf00      	nop
 80004f4:	bcf8      	pop	{r3, r4, r5, r6, r7}
 80004f6:	bc08      	pop	{r3}
 80004f8:	469e      	mov	lr, r3
 80004fa:	4770      	bx	lr

080004fc <_fini>:
 80004fc:	b5f8      	push	{r3, r4, r5, r6, r7, lr}
 80004fe:	bf00      	nop
 8000500:	bcf8      	pop	{r3, r4, r5, r6, r7}
 8000502:	bc08      	pop	{r3}
 8000504:	469e      	mov	lr, r3
 8000506:	4770      	bx	lr
